{
  "_format": "hh-sol-artifact-1",
  "contractName": "InWriting_Helper",
  "sourceName": "contracts/InWriting_Helper.sol",
  "abi": [
    {
      "inputs": [],
      "stateMutability": "nonpayable",
      "type": "constructor"
    },
    {
      "anonymous": false,
      "inputs": [
        {
          "indexed": true,
          "internalType": "address",
          "name": "previousOwner",
          "type": "address"
        },
        {
          "indexed": true,
          "internalType": "address",
          "name": "newOwner",
          "type": "address"
        }
      ],
      "name": "OwnershipTransferred",
      "type": "event"
    },
    {
      "inputs": [
        {
          "internalType": "uint256",
          "name": "tokenId",
          "type": "uint256"
        },
        {
          "internalType": "address",
          "name": "addr",
          "type": "address"
        }
      ],
      "name": "buy_and_send",
      "outputs": [
        {
          "internalType": "bool",
          "name": "",
          "type": "bool"
        }
      ],
      "stateMutability": "payable",
      "type": "function"
    },
    {
      "inputs": [
        {
          "internalType": "string",
          "name": "str",
          "type": "string"
        },
        {
          "internalType": "address",
          "name": "addr",
          "type": "address"
        }
      ],
      "name": "mint_and_send",
      "outputs": [
        {
          "internalType": "uint256",
          "name": "",
          "type": "uint256"
        }
      ],
      "stateMutability": "payable",
      "type": "function"
    },
    {
      "inputs": [
        {
          "internalType": "string",
          "name": "str",
          "type": "string"
        },
        {
          "internalType": "address",
          "name": "addr",
          "type": "address"
        }
      ],
      "name": "mint_unlocked_and_send",
      "outputs": [
        {
          "internalType": "uint256",
          "name": "",
          "type": "uint256"
        }
      ],
      "stateMutability": "payable",
      "type": "function"
    },
    {
      "inputs": [],
      "name": "owner",
      "outputs": [
        {
          "internalType": "address",
          "name": "",
          "type": "address"
        }
      ],
      "stateMutability": "view",
      "type": "function"
    },
    {
      "inputs": [],
      "name": "renounceOwnership",
      "outputs": [],
      "stateMutability": "nonpayable",
      "type": "function"
    },
    {
      "inputs": [
        {
          "internalType": "address",
          "name": "newOwner",
          "type": "address"
        }
      ],
      "name": "transferOwnership",
      "outputs": [],
      "stateMutability": "nonpayable",
      "type": "function"
    },
    {
      "inputs": [
        {
          "internalType": "uint256",
          "name": "amt",
          "type": "uint256"
        }
      ],
      "name": "withdraw",
      "outputs": [],
      "stateMutability": "nonpayable",
      "type": "function"
    }
  ],
  "bytecode": "0x6080604052600180546001600160a01b0319908116734ced71c6f18b112a36634eef5acfa6156c6dadad1791829055600280549091166001600160a01b039290921691909117905534801561005357600080fd5b5061006461005f610069565b61006d565b6100bd565b3390565b600080546001600160a01b038381166001600160a01b0319831681178455604051919092169283917f8be0079c531659141344cd1fd0a4f28419497f9722a3daafe3b4186f6b6457e09190a35050565b6108e5806100cc6000396000f3fe6080604052600436106100605760003560e01c80632e1a7d4d1461006557806330d7b54114610087578063715018a6146100b057806388240739146100c55780638da5cb5b146100d8578063edacec6a146100fa578063f2fde38b1461011a575b600080fd5b34801561007157600080fd5b5061008561008036600461072d565b61013a565b005b61009a610095366004610671565b6101d3565b6040516100a79190610890565b60405180910390f35b3480156100bc57600080fd5b5061008561033b565b61009a6100d3366004610671565b610386565b3480156100e457600080fd5b506100ed6103d8565b6040516100a7919061077f565b61010d61010836600461075d565b6103e7565b6040516100a791906107b7565b34801561012657600080fd5b50610085610135366004610630565b61054f565b6101426105c0565b6001600160a01b03166101536103d8565b6001600160a01b0316146101825760405162461bcd60e51b81526004016101799061085b565b60405180910390fd5b4781111561018f57600080fd5b6101976103d8565b6001600160a01b03166108fc829081150290604051600060405180830381858888f193505050501580156101cf573d6000803e3d6000fd5b5050565b6002546040805163b5ee622b60e01b8152905160009283926001600160a01b039091169163c99457d191839163b5ee622b91600480820192602092909190829003018186803b15801561022557600080fd5b505afa158015610239573d6000803e3d6000fd5b505050506040513d601f19601f8201168201806040525081019061025d9190610745565b866040518363ffffffff1660e01b815260040161027a91906107c2565b6020604051808303818588803b15801561029357600080fd5b505af11580156102a7573d6000803e3d6000fd5b50505050506040513d601f19601f820116820180604052508101906102cc9190610745565b6002546040516323b872dd60e01b81529192506001600160a01b0316906323b872dd9061030190309087908690600401610793565b600060405180830381600087803b15801561031b57600080fd5b505af115801561032f573d6000803e3d6000fd5b50929695505050505050565b6103436105c0565b6001600160a01b03166103546103d8565b6001600160a01b03161461037a5760405162461bcd60e51b81526004016101799061085b565b61038460006105c4565b565b6002546040805163b5ee622b60e01b8152905160009283926001600160a01b0390911691638d2e41e591839163b5ee622b91600480820192602092909190829003018186803b15801561022557600080fd5b6000546001600160a01b031690565b60025460405163d93580ff60e01b81526000916001600160a01b03169063d96a094a90829063d93580ff90610420908890600401610890565b60206040518083038186803b15801561043857600080fd5b505afa15801561044c573d6000803e3d6000fd5b505050506040513d601f19601f820116820180604052508101906104709190610745565b856040518363ffffffff1660e01b815260040161048d9190610890565b6020604051808303818588803b1580156104a657600080fd5b505af11580156104ba573d6000803e3d6000fd5b50505050506040513d601f19601f820116820180604052508101906104df9190610651565b506002546040516323b872dd60e01b81526001600160a01b03909116906323b872dd9061051490309086908890600401610793565b600060405180830381600087803b15801561052e57600080fd5b505af1158015610542573d6000803e3d6000fd5b5060019695505050505050565b6105576105c0565b6001600160a01b03166105686103d8565b6001600160a01b03161461058e5760405162461bcd60e51b81526004016101799061085b565b6001600160a01b0381166105b45760405162461bcd60e51b815260040161017990610815565b6105bd816105c4565b50565b3390565b600080546001600160a01b038381166001600160a01b0319831681178455604051919092169283917f8be0079c531659141344cd1fd0a4f28419497f9722a3daafe3b4186f6b6457e09190a35050565b80356001600160a01b038116811461062b57600080fd5b919050565b600060208284031215610641578081fd5b61064a82610614565b9392505050565b600060208284031215610662578081fd5b8151801515811461064a578182fd5b60008060408385031215610683578081fd5b82356001600160401b0380821115610699578283fd5b818501915085601f8301126106ac578283fd5b8135818111156106be576106be610899565b604051601f8201601f19908116603f011681019083821181831017156106e6576106e6610899565b816040528281528860208487010111156106fe578586fd5b826020860160208301378560208483010152809650505050505061072460208401610614565b90509250929050565b60006020828403121561073e578081fd5b5035919050565b600060208284031215610756578081fd5b5051919050565b6000806040838503121561076f578182fd5b8235915061072460208401610614565b6001600160a01b0391909116815260200190565b6001600160a01b039384168152919092166020820152604081019190915260600190565b901515815260200190565b6000602080835283518082850152825b818110156107ee578581018301518582016040015282016107d2565b818111156107ff5783604083870101525b50601f01601f1916929092016040019392505050565b60208082526026908201527f4f776e61626c653a206e6577206f776e657220697320746865207a65726f206160408201526564647265737360d01b606082015260800190565b6020808252818101527f4f776e61626c653a2063616c6c6572206973206e6f7420746865206f776e6572604082015260600190565b90815260200190565b634e487b7160e01b600052604160045260246000fdfea2646970667358221220afaad3da430ef14eb019f89b50fda3cd50788022abcc6006f3d96a7ade9523f664736f6c63430008010033",
  "linkReferences": {},
  "deployedLinkReferences": {}
}