{
  "_format": "hh-sol-artifact-1",
  "contractName": "InWriting",
  "sourceName": "contracts/inWriting.sol",
  "abi": [
    {
      "inputs": [],
      "stateMutability": "nonpayable",
      "type": "constructor"
    },
    {
      "anonymous": false,
      "inputs": [
        {
          "indexed": false,
          "internalType": "uint256",
          "name": "tokenId",
          "type": "uint256"
        },
        {
          "indexed": false,
          "internalType": "address",
          "name": "addr",
          "type": "address"
        }
      ],
      "name": "Appended",
      "type": "event"
    },
    {
      "anonymous": false,
      "inputs": [
        {
          "indexed": true,
          "internalType": "address",
          "name": "owner",
          "type": "address"
        },
        {
          "indexed": true,
          "internalType": "address",
          "name": "approved",
          "type": "address"
        },
        {
          "indexed": true,
          "internalType": "uint256",
          "name": "tokenId",
          "type": "uint256"
        }
      ],
      "name": "Approval",
      "type": "event"
    },
    {
      "anonymous": false,
      "inputs": [
        {
          "indexed": true,
          "internalType": "address",
          "name": "owner",
          "type": "address"
        },
        {
          "indexed": true,
          "internalType": "address",
          "name": "operator",
          "type": "address"
        },
        {
          "indexed": false,
          "internalType": "bool",
          "name": "approved",
          "type": "bool"
        }
      ],
      "name": "ApprovalForAll",
      "type": "event"
    },
    {
      "anonymous": false,
      "inputs": [
        {
          "indexed": false,
          "internalType": "uint256",
          "name": "tokenId",
          "type": "uint256"
        },
        {
          "indexed": false,
          "internalType": "uint256",
          "name": "price",
          "type": "uint256"
        }
      ],
      "name": "Bought",
      "type": "event"
    },
    {
      "anonymous": false,
      "inputs": [
        {
          "indexed": false,
          "internalType": "uint256",
          "name": "tokenId",
          "type": "uint256"
        },
        {
          "indexed": false,
          "internalType": "uint256",
          "name": "price",
          "type": "uint256"
        }
      ],
      "name": "Listed",
      "type": "event"
    },
    {
      "anonymous": false,
      "inputs": [
        {
          "indexed": true,
          "internalType": "address",
          "name": "previousOwner",
          "type": "address"
        },
        {
          "indexed": true,
          "internalType": "address",
          "name": "newOwner",
          "type": "address"
        }
      ],
      "name": "OwnershipTransferred",
      "type": "event"
    },
    {
      "anonymous": false,
      "inputs": [
        {
          "indexed": true,
          "internalType": "address",
          "name": "from",
          "type": "address"
        },
        {
          "indexed": true,
          "internalType": "address",
          "name": "to",
          "type": "address"
        },
        {
          "indexed": true,
          "internalType": "uint256",
          "name": "tokenId",
          "type": "uint256"
        }
      ],
      "name": "Transfer",
      "type": "event"
    },
    {
      "inputs": [
        {
          "internalType": "uint256",
          "name": "tokenId",
          "type": "uint256"
        },
        {
          "internalType": "string",
          "name": "str",
          "type": "string"
        }
      ],
      "name": "append_to_NFT",
      "outputs": [],
      "stateMutability": "nonpayable",
      "type": "function"
    },
    {
      "inputs": [
        {
          "internalType": "address",
          "name": "to",
          "type": "address"
        },
        {
          "internalType": "uint256",
          "name": "tokenId",
          "type": "uint256"
        }
      ],
      "name": "approve",
      "outputs": [],
      "stateMutability": "nonpayable",
      "type": "function"
    },
    {
      "inputs": [
        {
          "internalType": "address",
          "name": "owner",
          "type": "address"
        }
      ],
      "name": "balanceOf",
      "outputs": [
        {
          "internalType": "uint256",
          "name": "",
          "type": "uint256"
        }
      ],
      "stateMutability": "view",
      "type": "function"
    },
    {
      "inputs": [
        {
          "internalType": "uint256",
          "name": "tokenId",
          "type": "uint256"
        }
      ],
      "name": "buy",
      "outputs": [
        {
          "internalType": "bool",
          "name": "",
          "type": "bool"
        }
      ],
      "stateMutability": "payable",
      "type": "function"
    },
    {
      "inputs": [
        {
          "internalType": "uint256",
          "name": "tokenId",
          "type": "uint256"
        },
        {
          "internalType": "address",
          "name": "addr",
          "type": "address"
        }
      ],
      "name": "buy_and_send",
      "outputs": [
        {
          "internalType": "bool",
          "name": "",
          "type": "bool"
        }
      ],
      "stateMutability": "payable",
      "type": "function"
    },
    {
      "inputs": [
        {
          "internalType": "string",
          "name": "desc",
          "type": "string"
        }
      ],
      "name": "change_description",
      "outputs": [],
      "stateMutability": "nonpayable",
      "type": "function"
    },
    {
      "inputs": [
        {
          "internalType": "string",
          "name": "url",
          "type": "string"
        }
      ],
      "name": "change_external_url",
      "outputs": [],
      "stateMutability": "nonpayable",
      "type": "function"
    },
    {
      "inputs": [
        {
          "internalType": "string",
          "name": "str",
          "type": "string"
        }
      ],
      "name": "change_image_url",
      "outputs": [],
      "stateMutability": "nonpayable",
      "type": "function"
    },
    {
      "inputs": [
        {
          "internalType": "string",
          "name": "str",
          "type": "string"
        }
      ],
      "name": "check_if_used",
      "outputs": [
        {
          "internalType": "bool",
          "name": "",
          "type": "bool"
        }
      ],
      "stateMutability": "view",
      "type": "function"
    },
    {
      "inputs": [
        {
          "internalType": "uint256",
          "name": "tokenId",
          "type": "uint256"
        }
      ],
      "name": "delist_for_sale",
      "outputs": [
        {
          "internalType": "bool",
          "name": "",
          "type": "bool"
        }
      ],
      "stateMutability": "nonpayable",
      "type": "function"
    },
    {
      "inputs": [
        {
          "internalType": "uint256",
          "name": "tokenId",
          "type": "uint256"
        }
      ],
      "name": "getApproved",
      "outputs": [
        {
          "internalType": "address",
          "name": "",
          "type": "address"
        }
      ],
      "stateMutability": "view",
      "type": "function"
    },
    {
      "inputs": [],
      "name": "get_minter_royalty",
      "outputs": [
        {
          "internalType": "uint8",
          "name": "",
          "type": "uint8"
        }
      ],
      "stateMutability": "view",
      "type": "function"
    },
    {
      "inputs": [],
      "name": "get_minting_cost",
      "outputs": [
        {
          "internalType": "uint256",
          "name": "",
          "type": "uint256"
        }
      ],
      "stateMutability": "view",
      "type": "function"
    },
    {
      "inputs": [
        {
          "internalType": "uint256",
          "name": "tokenId",
          "type": "uint256"
        }
      ],
      "name": "get_original_minter",
      "outputs": [
        {
          "internalType": "address",
          "name": "",
          "type": "address"
        }
      ],
      "stateMutability": "view",
      "type": "function"
    },
    {
      "inputs": [
        {
          "internalType": "uint256",
          "name": "tokenId",
          "type": "uint256"
        }
      ],
      "name": "get_price",
      "outputs": [
        {
          "internalType": "uint256",
          "name": "",
          "type": "uint256"
        }
      ],
      "stateMutability": "view",
      "type": "function"
    },
    {
      "inputs": [],
      "name": "get_royalty",
      "outputs": [
        {
          "internalType": "uint256",
          "name": "",
          "type": "uint256"
        }
      ],
      "stateMutability": "view",
      "type": "function"
    },
    {
      "inputs": [
        {
          "internalType": "uint256",
          "name": "tokenId",
          "type": "uint256"
        }
      ],
      "name": "get_string",
      "outputs": [
        {
          "internalType": "string",
          "name": "",
          "type": "string"
        }
      ],
      "stateMutability": "view",
      "type": "function"
    },
    {
      "inputs": [
        {
          "internalType": "address",
          "name": "owner",
          "type": "address"
        },
        {
          "internalType": "address",
          "name": "operator",
          "type": "address"
        }
      ],
      "name": "isApprovedForAll",
      "outputs": [
        {
          "internalType": "bool",
          "name": "",
          "type": "bool"
        }
      ],
      "stateMutability": "view",
      "type": "function"
    },
    {
      "inputs": [
        {
          "internalType": "uint256",
          "name": "tokenId",
          "type": "uint256"
        },
        {
          "internalType": "uint256",
          "name": "price",
          "type": "uint256"
        }
      ],
      "name": "list_for_sale",
      "outputs": [
        {
          "internalType": "bool",
          "name": "",
          "type": "bool"
        }
      ],
      "stateMutability": "nonpayable",
      "type": "function"
    },
    {
      "inputs": [
        {
          "internalType": "uint256",
          "name": "tokenId",
          "type": "uint256"
        }
      ],
      "name": "lock_NFT",
      "outputs": [],
      "stateMutability": "nonpayable",
      "type": "function"
    },
    {
      "inputs": [
        {
          "internalType": "string",
          "name": "str",
          "type": "string"
        }
      ],
      "name": "mint_NFT",
      "outputs": [
        {
          "internalType": "uint256",
          "name": "",
          "type": "uint256"
        }
      ],
      "stateMutability": "payable",
      "type": "function"
    },
    {
      "inputs": [
        {
          "internalType": "string",
          "name": "str",
          "type": "string"
        },
        {
          "internalType": "uint256",
          "name": "price",
          "type": "uint256"
        }
      ],
      "name": "mint_and_list_NFT",
      "outputs": [
        {
          "internalType": "uint256",
          "name": "",
          "type": "uint256"
        }
      ],
      "stateMutability": "payable",
      "type": "function"
    },
    {
      "inputs": [
        {
          "internalType": "string",
          "name": "str",
          "type": "string"
        },
        {
          "internalType": "uint256",
          "name": "price",
          "type": "uint256"
        }
      ],
      "name": "mint_and_list_unlocked_NFT",
      "outputs": [
        {
          "internalType": "uint256",
          "name": "",
          "type": "uint256"
        }
      ],
      "stateMutability": "payable",
      "type": "function"
    },
    {
      "inputs": [
        {
          "internalType": "string",
          "name": "str",
          "type": "string"
        },
        {
          "internalType": "address",
          "name": "addr",
          "type": "address"
        }
      ],
      "name": "mint_and_send",
      "outputs": [
        {
          "internalType": "uint256",
          "name": "",
          "type": "uint256"
        }
      ],
      "stateMutability": "payable",
      "type": "function"
    },
    {
      "inputs": [
        {
          "internalType": "string",
          "name": "str",
          "type": "string"
        },
        {
          "internalType": "address",
          "name": "addr",
          "type": "address"
        }
      ],
      "name": "mint_and_send_unlocked_NFT",
      "outputs": [
        {
          "internalType": "uint256",
          "name": "",
          "type": "uint256"
        }
      ],
      "stateMutability": "payable",
      "type": "function"
    },
    {
      "inputs": [
        {
          "internalType": "string",
          "name": "str",
          "type": "string"
        }
      ],
      "name": "mint_unlocked_NFT",
      "outputs": [
        {
          "internalType": "uint256",
          "name": "",
          "type": "uint256"
        }
      ],
      "stateMutability": "payable",
      "type": "function"
    },
    {
      "inputs": [],
      "name": "name",
      "outputs": [
        {
          "internalType": "string",
          "name": "",
          "type": "string"
        }
      ],
      "stateMutability": "view",
      "type": "function"
    },
    {
      "inputs": [],
      "name": "owner",
      "outputs": [
        {
          "internalType": "address",
          "name": "",
          "type": "address"
        }
      ],
      "stateMutability": "view",
      "type": "function"
    },
    {
      "inputs": [
        {
          "internalType": "uint256",
          "name": "tokenId",
          "type": "uint256"
        }
      ],
      "name": "ownerOf",
      "outputs": [
        {
          "internalType": "address",
          "name": "",
          "type": "address"
        }
      ],
      "stateMutability": "view",
      "type": "function"
    },
    {
      "inputs": [],
      "name": "renounceOwnership",
      "outputs": [],
      "stateMutability": "nonpayable",
      "type": "function"
    },
    {
      "inputs": [
        {
          "internalType": "address",
          "name": "from",
          "type": "address"
        },
        {
          "internalType": "address",
          "name": "to",
          "type": "address"
        },
        {
          "internalType": "uint256",
          "name": "tokenId",
          "type": "uint256"
        }
      ],
      "name": "safeTransferFrom",
      "outputs": [],
      "stateMutability": "nonpayable",
      "type": "function"
    },
    {
      "inputs": [
        {
          "internalType": "address",
          "name": "from",
          "type": "address"
        },
        {
          "internalType": "address",
          "name": "to",
          "type": "address"
        },
        {
          "internalType": "uint256",
          "name": "tokenId",
          "type": "uint256"
        },
        {
          "internalType": "bytes",
          "name": "_data",
          "type": "bytes"
        }
      ],
      "name": "safeTransferFrom",
      "outputs": [],
      "stateMutability": "nonpayable",
      "type": "function"
    },
    {
      "inputs": [
        {
          "internalType": "address",
          "name": "operator",
          "type": "address"
        },
        {
          "internalType": "bool",
          "name": "approved",
          "type": "bool"
        }
      ],
      "name": "setApprovalForAll",
      "outputs": [],
      "stateMutability": "nonpayable",
      "type": "function"
    },
    {
      "inputs": [
        {
          "internalType": "uint8",
          "name": "new_royalty",
          "type": "uint8"
        }
      ],
      "name": "set_minter_royalty",
      "outputs": [],
      "stateMutability": "nonpayable",
      "type": "function"
    },
    {
      "inputs": [
        {
          "internalType": "address",
          "name": "addr",
          "type": "address"
        },
        {
          "internalType": "uint256",
          "name": "num",
          "type": "uint256"
        }
      ],
      "name": "set_no_cost_minter",
      "outputs": [],
      "stateMutability": "nonpayable",
      "type": "function"
    },
    {
      "inputs": [
        {
          "internalType": "bytes4",
          "name": "interfaceId",
          "type": "bytes4"
        }
      ],
      "name": "supportsInterface",
      "outputs": [
        {
          "internalType": "bool",
          "name": "",
          "type": "bool"
        }
      ],
      "stateMutability": "view",
      "type": "function"
    },
    {
      "inputs": [],
      "name": "symbol",
      "outputs": [
        {
          "internalType": "string",
          "name": "",
          "type": "string"
        }
      ],
      "stateMutability": "view",
      "type": "function"
    },
    {
      "inputs": [
        {
          "internalType": "uint256",
          "name": "tokenId",
          "type": "uint256"
        }
      ],
      "name": "tokenURI",
      "outputs": [
        {
          "internalType": "string",
          "name": "",
          "type": "string"
        }
      ],
      "stateMutability": "view",
      "type": "function"
    },
    {
      "inputs": [],
      "name": "totalSupply",
      "outputs": [
        {
          "internalType": "uint256",
          "name": "",
          "type": "uint256"
        }
      ],
      "stateMutability": "view",
      "type": "function"
    },
    {
      "inputs": [
        {
          "internalType": "address",
          "name": "from",
          "type": "address"
        },
        {
          "internalType": "address",
          "name": "to",
          "type": "address"
        },
        {
          "internalType": "uint256",
          "name": "tokenId",
          "type": "uint256"
        }
      ],
      "name": "transferFrom",
      "outputs": [],
      "stateMutability": "nonpayable",
      "type": "function"
    },
    {
      "inputs": [
        {
          "internalType": "address",
          "name": "newOwner",
          "type": "address"
        }
      ],
      "name": "transferOwnership",
      "outputs": [],
      "stateMutability": "nonpayable",
      "type": "function"
    },
    {
      "inputs": [
        {
          "internalType": "uint256",
          "name": "newCost",
          "type": "uint256"
        }
      ],
      "name": "update_minting_cost",
      "outputs": [],
      "stateMutability": "nonpayable",
      "type": "function"
    },
    {
      "inputs": [
        {
          "internalType": "uint8",
          "name": "newRoyalty",
          "type": "uint8"
        }
      ],
      "name": "update_royalty",
      "outputs": [],
      "stateMutability": "nonpayable",
      "type": "function"
    },
    {
      "inputs": [
        {
          "internalType": "uint256",
          "name": "amt",
          "type": "uint256"
        }
      ],
      "name": "withdraw",
      "outputs": [],
      "stateMutability": "nonpayable",
      "type": "function"
    }
  ],
  "bytecode": "0x60806040526000600960006101000a81548160ff021916908360ff1602179055506014600960016101000a81548160ff021916908360ff1602179055506608e1bc9bf04000600f5560405180606001604052806037815260200162005e0360379139601090805190602001906200007892919062000273565b506040518060200160405280600081525060119080519060200190620000a092919062000273565b5060405180606001604052806023815260200162005de06023913960129080519060200190620000d292919062000273565b50348015620000e057600080fd5b506040518060400160405280600981526020017f496e57726974696e6700000000000000000000000000000000000000000000008152506040518060400160405280600581526020017f57524954450000000000000000000000000000000000000000000000000000008152506200016d62000161620001a760201b60201c565b620001af60201b60201c565b81600190805190602001906200018592919062000273565b5080600290805190602001906200019e92919062000273565b50505062000388565b600033905090565b60008060009054906101000a900473ffffffffffffffffffffffffffffffffffffffff169050816000806101000a81548173ffffffffffffffffffffffffffffffffffffffff021916908373ffffffffffffffffffffffffffffffffffffffff1602179055508173ffffffffffffffffffffffffffffffffffffffff168173ffffffffffffffffffffffffffffffffffffffff167f8be0079c531659141344cd1fd0a4f28419497f9722a3daafe3b4186f6b6457e060405160405180910390a35050565b828054620002819062000352565b90600052602060002090601f016020900481019282620002a55760008555620002f1565b82601f10620002c057805160ff1916838001178555620002f1565b82800160010185558215620002f1579182015b82811115620002f0578251825591602001919060010190620002d3565b5b50905062000300919062000304565b5090565b5b808211156200031f57600081600090555060010162000305565b5090565b7f4e487b7100000000000000000000000000000000000000000000000000000000600052602260045260246000fd5b600060028204905060018216806200036b57607f821691505b6020821081141562000382576200038162000323565b5b50919050565b615a4880620003986000396000f3fe6080604052600436106102675760003560e01c80638824073911610144578063c87b56dd116100b6578063d96a094a1161007a578063d96a094a14610984578063df30ea46146109b4578063e985e9c5146109dd578063edacec6a14610a1a578063f1d1490314610a4a578063f2fde38b14610a7357610267565b8063c87b56dd14610888578063c99457d1146108c5578063d28e3fff146108f5578063d70035f01461091e578063d93580ff1461094757610267565b806398f4bd671161010857806398f4bd6714610789578063a22cb465146107b9578063a73a253f146107e2578063b5ee622b1461080b578063b88d4fde14610836578063c1b486731461085f57610267565b806388240739146106aa5780638d2e41e5146106da5780638da5cb5b1461070a57806391126b0a1461073557806395d89b411461075e57610267565b80632e1a7d4d116101dd5780636352211e116101a15780636352211e146105835780636eb02583146105c057806370a08231146105f0578063715018a61461062d5780638044c0d414610644578063834ca1001461066d57610267565b80632e1a7d4d1461048c578063361809bf146104b557806342842e0e146104e05780634c1fbab0146105095780634c24c4391461054657610267565b8063095ea7b31161022f578063095ea7b3146103795780630eb4d8cb146103a257806318160ddd146103d257806323b872dd146103fd57806328f4cc7c146104265780632ab8a2981461044f57610267565b806301b71aec1461026c57806301ffc9a7146102a957806306487b60146102e657806306fdde0314610311578063081812fc1461033c575b600080fd5b34801561027857600080fd5b50610293600480360381019061028e9190613845565b610a9c565b6040516102a091906138a0565b60405180910390f35b3480156102b557600080fd5b506102d060048036038101906102cb9190613913565b610bbd565b6040516102dd91906138a0565b60405180910390f35b3480156102f257600080fd5b506102fb610c9f565b604051610308919061395c565b60405180910390f35b34801561031d57600080fd5b50610326610cb6565b6040516103339190613a10565b60405180910390f35b34801561034857600080fd5b50610363600480360381019061035e9190613a32565b610d48565b6040516103709190613aa0565b60405180910390f35b34801561038557600080fd5b506103a0600480360381019061039b9190613ae7565b610dcd565b005b6103bc60048036038101906103b79190613c5c565b610ee5565b6040516103c99190613cc7565b60405180910390f35b3480156103de57600080fd5b506103e7610f08565b6040516103f49190613cc7565b60405180910390f35b34801561040957600080fd5b50610424600480360381019061041f9190613ce2565b610f19565b005b34801561043257600080fd5b5061044d60048036038101906104489190613d35565b610f79565b005b34801561045b57600080fd5b5061047660048036038101906104719190613a32565b61100f565b60405161048391906138a0565b60405180910390f35b34801561049857600080fd5b506104b360048036038101906104ae9190613a32565b611137565b005b3480156104c157600080fd5b506104ca611211565b6040516104d79190613cc7565b60405180910390f35b3480156104ec57600080fd5b5061050760048036038101906105029190613ce2565b61122b565b005b34801561051557600080fd5b50610530600480360381019061052b9190613a32565b61124b565b60405161053d9190613aa0565b60405180910390f35b34801561055257600080fd5b5061056d60048036038101906105689190613d35565b6112d0565b60405161057a91906138a0565b60405180910390f35b34801561058f57600080fd5b506105aa60048036038101906105a59190613a32565b611305565b6040516105b79190613aa0565b60405180910390f35b6105da60048036038101906105d59190613c5c565b6113b7565b6040516105e79190613cc7565b60405180910390f35b3480156105fc57600080fd5b5061061760048036038101906106129190613d7e565b6113da565b6040516106249190613cc7565b60405180910390f35b34801561063957600080fd5b50610642611492565b005b34801561065057600080fd5b5061066b60048036038101906106669190613a32565b61151a565b005b34801561067957600080fd5b50610694600480360381019061068f9190613a32565b6115a0565b6040516106a19190613a10565b60405180910390f35b6106c460048036038101906106bf9190613dab565b61168d565b6040516106d19190613cc7565b60405180910390f35b6106f460048036038101906106ef9190613d35565b6119b6565b6040516107019190613cc7565b60405180910390f35b34801561071657600080fd5b5061071f6119c9565b60405161072c9190613aa0565b60405180910390f35b34801561074157600080fd5b5061075c60048036038101906107579190613e07565b6119f2565b005b34801561076a57600080fd5b50610773611d27565b6040516107809190613a10565b60405180910390f35b6107a3600480360381019061079e9190613dab565b611db9565b6040516107b09190613cc7565b60405180910390f35b3480156107c557600080fd5b506107e060048036038101906107db9190613e8f565b611dfe565b005b3480156107ee57600080fd5b5061080960048036038101906108049190613d35565b611e14565b005b34801561081757600080fd5b50610820611eaa565b60405161082d9190613cc7565b60405180910390f35b34801561084257600080fd5b5061085d60048036038101906108589190613f70565b611eb4565b005b34801561086b57600080fd5b506108866004803603810190610881919061401f565b611f16565b005b34801561089457600080fd5b506108af60048036038101906108aa9190613a32565b611ff6565b6040516108bc9190613a10565b60405180910390f35b6108df60048036038101906108da9190613d35565b6120d7565b6040516108ec9190613cc7565b60405180910390f35b34801561090157600080fd5b5061091c60048036038101906109179190613ae7565b6120ea565b005b34801561092a57600080fd5b506109456004803603810190610940919061401f565b6121ae565b005b34801561095357600080fd5b5061096e60048036038101906109699190613a32565b61228e565b60405161097b9190613cc7565b60405180910390f35b61099e60048036038101906109999190613a32565b612348565b6040516109ab91906138a0565b60405180910390f35b3480156109c057600080fd5b506109db60048036038101906109d69190613d35565b61235b565b005b3480156109e957600080fd5b50610a0460048036038101906109ff919061404c565b6123f1565b604051610a1191906138a0565b60405180910390f35b610a346004803603810190610a2f919061408c565b612485565b604051610a4191906138a0565b60405180910390f35b348015610a5657600080fd5b50610a716004803603810190610a6c9190613a32565b612709565b005b348015610a7f57600080fd5b50610a9a6004803603810190610a959190613d7e565b612778565b005b600060638211610ae1576040517f08c379a0000000000000000000000000000000000000000000000000000000008152600401610ad89061413e565b60405180910390fd5b610aea83611305565b73ffffffffffffffffffffffffffffffffffffffff163373ffffffffffffffffffffffffffffffffffffffff1614610b57576040517f08c379a0000000000000000000000000000000000000000000000000000000008152600401610b4e906141d0565b60405180910390fd5b610b62600084610dcd565b8160086000858152602001908152602001600020819055507f1ea45e30b31292f9d7c5d37d275b2feca555f13f47dce0fdea2f47e8852ecd788383604051610bab9291906141f0565b60405180910390a16001905092915050565b60007f80ac58cd000000000000000000000000000000000000000000000000000000007bffffffffffffffffffffffffffffffffffffffffffffffffffffffff1916827bffffffffffffffffffffffffffffffffffffffffffffffffffffffff19161480610c8857507f5b5e139f000000000000000000000000000000000000000000000000000000007bffffffffffffffffffffffffffffffffffffffffffffffffffffffff1916827bffffffffffffffffffffffffffffffffffffffffffffffffffffffff1916145b80610c985750610c9782612870565b5b9050919050565b6000600960019054906101000a900460ff16905090565b606060018054610cc590614248565b80601f0160208091040260200160405190810160405280929190818152602001828054610cf190614248565b8015610d3e5780601f10610d1357610100808354040283529160200191610d3e565b820191906000526020600020905b815481529060010190602001808311610d2157829003601f168201915b5050505050905090565b6000610d53826128da565b610d92576040517f08c379a0000000000000000000000000000000000000000000000000000000008152600401610d89906142ec565b60405180910390fd5b6005600083815260200190815260200160002060009054906101000a900473ffffffffffffffffffffffffffffffffffffffff169050919050565b6000610dd882611305565b90508073ffffffffffffffffffffffffffffffffffffffff168373ffffffffffffffffffffffffffffffffffffffff161415610e49576040517f08c379a0000000000000000000000000000000000000000000000000000000008152600401610e409061437e565b60405180910390fd5b8073ffffffffffffffffffffffffffffffffffffffff16610e68612946565b73ffffffffffffffffffffffffffffffffffffffff161480610e975750610e9681610e91612946565b6123f1565b5b610ed6576040517f08c379a0000000000000000000000000000000000000000000000000000000008152600401610ecd90614410565b60405180910390fd5b610ee0838361294e565b505050565b600080610ef1846119b6565b9050610efd8184610a9c565b508091505092915050565b6000610f14600a612a5d565b905090565b610f2a610f24612946565b82612a6b565b610f69576040517f08c379a0000000000000000000000000000000000000000000000000000000008152600401610f60906144a2565b60405180910390fd5b610f74838383612b49565b505050565b610f81612946565b73ffffffffffffffffffffffffffffffffffffffff16610f9f6119c9565b73ffffffffffffffffffffffffffffffffffffffff1614610ff5576040517f08c379a0000000000000000000000000000000000000000000000000000000008152600401610fec9061450e565b60405180910390fd5b806010908051906020019061100b929190613758565b5050565b60008060086000848152602001908152602001600020541415611067576040517f08c379a000000000000000000000000000000000000000000000000000000000815260040161105e9061457a565b60405180910390fd5b61107082611305565b73ffffffffffffffffffffffffffffffffffffffff163373ffffffffffffffffffffffffffffffffffffffff16146110dd576040517f08c379a00000000000000000000000000000000000000000000000000000000081526004016110d49061460c565b60405180910390fd5b60086000838152602001908152602001600020600090557f3ccb2ab6980b218b1dd4974b07365cd90a191e170c611da46262fecc208bd661826000604051611126929190614671565b60405180910390a160019050919050565b61113f612946565b73ffffffffffffffffffffffffffffffffffffffff1661115d6119c9565b73ffffffffffffffffffffffffffffffffffffffff16146111b3576040517f08c379a00000000000000000000000000000000000000000000000000000000081526004016111aa9061450e565b60405180910390fd5b478111156111c057600080fd5b6111c86119c9565b73ffffffffffffffffffffffffffffffffffffffff166108fc829081150290604051600060405180830381858888f1935050505015801561120d573d6000803e3d6000fd5b5050565b6000600960009054906101000a900460ff1660ff16905090565b61124683838360405180602001604052806000815250611eb4565b505050565b6000611256826128da565b611295576040517f08c379a000000000000000000000000000000000000000000000000000000000815260040161128c906146e6565b60405180910390fd5b6007600083815260200190815260200160002060009054906101000a900473ffffffffffffffffffffffffffffffffffffffff169050919050565b6000600b826040516112e29190614742565b908152602001604051809103902060009054906101000a900460ff169050919050565b6000806003600084815260200190815260200160002060009054906101000a900473ffffffffffffffffffffffffffffffffffffffff169050600073ffffffffffffffffffffffffffffffffffffffff168173ffffffffffffffffffffffffffffffffffffffff1614156113ae576040517f08c379a00000000000000000000000000000000000000000000000000000000081526004016113a5906147cb565b60405180910390fd5b80915050919050565b6000806113c3846120d7565b90506113cf8184610a9c565b508091505092915050565b60008073ffffffffffffffffffffffffffffffffffffffff168273ffffffffffffffffffffffffffffffffffffffff16141561144b576040517f08c379a00000000000000000000000000000000000000000000000000000000081526004016114429061485d565b60405180910390fd5b600460008373ffffffffffffffffffffffffffffffffffffffff1673ffffffffffffffffffffffffffffffffffffffff168152602001908152602001600020549050919050565b61149a612946565b73ffffffffffffffffffffffffffffffffffffffff166114b86119c9565b73ffffffffffffffffffffffffffffffffffffffff161461150e576040517f08c379a00000000000000000000000000000000000000000000000000000000081526004016115059061450e565b60405180910390fd5b6115186000612dfb565b565b611522612946565b73ffffffffffffffffffffffffffffffffffffffff166115406119c9565b73ffffffffffffffffffffffffffffffffffffffff1614611596576040517f08c379a000000000000000000000000000000000000000000000000000000000815260040161158d9061450e565b60405180910390fd5b80600f8190555050565b60606115ab826128da565b6115ea576040517f08c379a00000000000000000000000000000000000000000000000000000000081526004016115e1906146e6565b60405180910390fd5b600c6000838152602001908152602001600020805461160890614248565b80601f016020809104026020016040519081016040528092919081815260200182805461163490614248565b80156116815780601f1061165657610100808354040283529160200191611681565b820191906000526020600020905b81548152906001019060200180831161166457829003601f168201915b50505050509050919050565b600080600190506000600e60003373ffffffffffffffffffffffffffffffffffffffff1673ffffffffffffffffffffffffffffffffffffffff16815260200190815260200160002054111561173c576001600e60003373ffffffffffffffffffffffffffffffffffffffff1673ffffffffffffffffffffffffffffffffffffffff168152602001908152602001600020600082825461172c91906148ac565b925050819055506000905061182b565b6000600e60008573ffffffffffffffffffffffffffffffffffffffff1673ffffffffffffffffffffffffffffffffffffffff1681526020019081526020016000205411156117e4576001600e60008573ffffffffffffffffffffffffffffffffffffffff1673ffffffffffffffffffffffffffffffffffffffff16815260200190815260200160002060008282546117d491906148ac565b925050819055506000905061182a565b600f54341015611829576040517f08c379a00000000000000000000000000000000000000000000000000000000081526004016118209061492c565b60405180910390fd5b5b5b600b8460405161183b9190614742565b908152602001604051809103902060009054906101000a900460ff1615611897576040517f08c379a000000000000000000000000000000000000000000000000000000000815260040161188e906149be565b60405180910390fd5b60006118a3600a612a5d565b90506118af600a612ebf565b84600c600083815260200190815260200160002090805190602001906118d6929190613758565b506000600c600083815260200190815260200160002090506001600b826040516119009190614a72565b908152602001604051809103902060006101000a81548160ff02191690831515021790555061192f8583612ed5565b8260ff16600f546119409190614a89565b3411156119aa578473ffffffffffffffffffffffffffffffffffffffff166108fc8460ff16600f546119729190614a89565b3461197d91906148ac565b9081150290604051600060405180830381858888f193505050501580156119a8573d6000803e3d6000fd5b505b81935050505092915050565b60006119c2823361168d565b9050919050565b60008060009054906101000a900473ffffffffffffffffffffffffffffffffffffffff16905090565b6119fb82611305565b73ffffffffffffffffffffffffffffffffffffffff163373ffffffffffffffffffffffffffffffffffffffff1614611a68576040517f08c379a0000000000000000000000000000000000000000000000000000000008152600401611a5f90614b55565b60405180910390fd5b600d600083815260200190815260200160002060009054906101000a900460ff16611ac8576040517f08c379a0000000000000000000000000000000000000000000000000000000008152600401611abf90614be7565b60405180910390fd5b611ad1826130f5565b15611b11576040517f08c379a0000000000000000000000000000000000000000000000000000000008152600401611b0890614c79565b60405180910390fd5b6000600c60008481526020019081526020016000208054611b3190614248565b80601f0160208091040260200160405190810160405280929190818152602001828054611b5d90614248565b8015611baa5780601f10611b7f57610100808354040283529160200191611baa565b820191906000526020600020905b815481529060010190602001808311611b8d57829003601f168201915b5050505050905060008183604051602001611bc6929190614c99565b6040516020818303038152906040529050600b81604051611be79190614742565b908152602001604051809103902060009054906101000a900460ff1615611c43576040517f08c379a0000000000000000000000000000000000000000000000000000000008152600401611c3a906149be565b60405180910390fd5b80600c60008681526020019081526020016000209080519060200190611c6a929190613758565b506000600c600086815260200190815260200160002090506001600b82604051611c949190614a72565b908152602001604051809103902060006101000a81548160ff021916908315150217905550600b83604051611cc99190614742565b908152602001604051809103902060006101000a81549060ff02191690557fb77ac2cf2bae3b1d3a17f92a68edca0b214181c2b72dbc133de7491fa2b557518533604051611d18929190614cbd565b60405180910390a15050505050565b606060028054611d3690614248565b80601f0160208091040260200160405190810160405280929190818152602001828054611d6290614248565b8015611daf5780601f10611d8457610100808354040283529160200191611daf565b820191906000526020600020905b815481529060010190602001808311611d9257829003601f168201915b5050505050905090565b600080611dc6848461168d565b90506001600d600083815260200190815260200160002060006101000a81548160ff0219169083151502179055508091505092915050565b611e10611e09612946565b8383613115565b5050565b611e1c612946565b73ffffffffffffffffffffffffffffffffffffffff16611e3a6119c9565b73ffffffffffffffffffffffffffffffffffffffff1614611e90576040517f08c379a0000000000000000000000000000000000000000000000000000000008152600401611e879061450e565b60405180910390fd5b8060129080519060200190611ea6929190613758565b5050565b6000600f54905090565b611ec5611ebf612946565b83612a6b565b611f04576040517f08c379a0000000000000000000000000000000000000000000000000000000008152600401611efb906144a2565b60405180910390fd5b611f1084848484613282565b50505050565b611f1e612946565b73ffffffffffffffffffffffffffffffffffffffff16611f3c6119c9565b73ffffffffffffffffffffffffffffffffffffffff1614611f92576040517f08c379a0000000000000000000000000000000000000000000000000000000008152600401611f899061450e565b60405180910390fd5b60648160ff1610611fd8576040517f08c379a0000000000000000000000000000000000000000000000000000000008152600401611fcf90614d32565b60405180910390fd5b80600960016101000a81548160ff021916908360ff16021790555050565b606060006040518060400160405280601d81526020017f646174613a6170706c69636174696f6e2f6a736f6e3b6261736536342c0000008152509050600061203d846132de565b905060008161205361204e876115a0565b61343f565b60128460118660108860405160200161206d929190614de6565b604051602081830303815290604052604051602001612092979695949392919061501e565b6040516020818303038152906040529050826120ad8261343f565b6040516020016120be929190614c99565b6040516020818303038152906040529350505050919050565b60006120e38233611db9565b9050919050565b6120f2612946565b73ffffffffffffffffffffffffffffffffffffffff166121106119c9565b73ffffffffffffffffffffffffffffffffffffffff1614612166576040517f08c379a000000000000000000000000000000000000000000000000000000000815260040161215d9061450e565b60405180910390fd5b80600e60008473ffffffffffffffffffffffffffffffffffffffff1673ffffffffffffffffffffffffffffffffffffffff168152602001908152602001600020819055505050565b6121b6612946565b73ffffffffffffffffffffffffffffffffffffffff166121d46119c9565b73ffffffffffffffffffffffffffffffffffffffff161461222a576040517f08c379a00000000000000000000000000000000000000000000000000000000081526004016122219061450e565b60405180910390fd5b60648160ff1610612270576040517f08c379a000000000000000000000000000000000000000000000000000000000815260040161226790614d32565b60405180910390fd5b80600960006101000a81548160ff021916908360ff16021790555050565b600080600860008481526020019081526020016000205414156122e6576040517f08c379a00000000000000000000000000000000000000000000000000000000081526004016122dd9061457a565b60405180910390fd5b6064600960009054906101000a900460ff1660ff1660086000858152602001908152602001600020546123199190614a89565b61232391906150ff565b60086000848152602001908152602001600020546123419190615130565b9050919050565b60006123548233612485565b9050919050565b612363612946565b73ffffffffffffffffffffffffffffffffffffffff166123816119c9565b73ffffffffffffffffffffffffffffffffffffffff16146123d7576040517f08c379a00000000000000000000000000000000000000000000000000000000081526004016123ce9061450e565b60405180910390fd5b80601190805190602001906123ed929190613758565b5050565b6000600660008473ffffffffffffffffffffffffffffffffffffffff1673ffffffffffffffffffffffffffffffffffffffff16815260200190815260200160002060008373ffffffffffffffffffffffffffffffffffffffff1673ffffffffffffffffffffffffffffffffffffffff16815260200190815260200160002060009054906101000a900460ff16905092915050565b600080600860008581526020019081526020016000205414156124dd576040517f08c379a00000000000000000000000000000000000000000000000000000000081526004016124d49061457a565b60405180910390fd5b60006124e88461228e565b90508034101561252d576040517f08c379a0000000000000000000000000000000000000000000000000000000008152600401612524906151d2565b60405180910390fd5b600060086000868152602001908152602001600020549050600061255086611305565b90506008600087815260200190815260200160002060009055612574818688612b49565b8073ffffffffffffffffffffffffffffffffffffffff166108fc6064600960019054906101000a900460ff1660646125ac91906151f2565b60ff16856125ba9190614a89565b6125c491906150ff565b9081150290604051600060405180830381858888f193505050501580156125ef573d6000803e3d6000fd5b506125f98661124b565b73ffffffffffffffffffffffffffffffffffffffff166108fc6064600960019054906101000a900460ff1660ff16856126329190614a89565b61263c91906150ff565b9081150290604051600060405180830381858888f19350505050158015612667573d6000803e3d6000fd5b507f3ccb2ab6980b218b1dd4974b07365cd90a191e170c611da46262fecc208bd66186846040516126999291906141f0565b60405180910390a1823411156126fc578473ffffffffffffffffffffffffffffffffffffffff166108fc84346126cf91906148ac565b9081150290604051600060405180830381858888f193505050501580156126fa573d6000803e3d6000fd5b505b6001935050505092915050565b6127133382612a6b565b612752576040517f08c379a000000000000000000000000000000000000000000000000000000000815260040161274990615298565b60405180910390fd5b600d600082815260200190815260200160002060006101000a81549060ff021916905550565b612780612946565b73ffffffffffffffffffffffffffffffffffffffff1661279e6119c9565b73ffffffffffffffffffffffffffffffffffffffff16146127f4576040517f08c379a00000000000000000000000000000000000000000000000000000000081526004016127eb9061450e565b60405180910390fd5b600073ffffffffffffffffffffffffffffffffffffffff168173ffffffffffffffffffffffffffffffffffffffff161415612864576040517f08c379a000000000000000000000000000000000000000000000000000000000815260040161285b9061532a565b60405180910390fd5b61286d81612dfb565b50565b60007f01ffc9a7000000000000000000000000000000000000000000000000000000007bffffffffffffffffffffffffffffffffffffffffffffffffffffffff1916827bffffffffffffffffffffffffffffffffffffffffffffffffffffffff1916149050919050565b60008073ffffffffffffffffffffffffffffffffffffffff166003600084815260200190815260200160002060009054906101000a900473ffffffffffffffffffffffffffffffffffffffff1673ffffffffffffffffffffffffffffffffffffffff1614159050919050565b600033905090565b60006008600083815260200190815260200160002054146129a4576040517f08c379a000000000000000000000000000000000000000000000000000000000815260040161299b906153e2565b60405180910390fd5b816005600083815260200190815260200160002060006101000a81548173ffffffffffffffffffffffffffffffffffffffff021916908373ffffffffffffffffffffffffffffffffffffffff160217905550808273ffffffffffffffffffffffffffffffffffffffff16612a1783611305565b73ffffffffffffffffffffffffffffffffffffffff167f8c5be1e5ebec7d5bd14f71427d1e84f3dd0314c0f7b2291e5b200ac8c7c3b92560405160405180910390a45050565b600081600001549050919050565b6000612a76826128da565b612ab5576040517f08c379a0000000000000000000000000000000000000000000000000000000008152600401612aac90615474565b60405180910390fd5b6000612ac083611305565b90508073ffffffffffffffffffffffffffffffffffffffff168473ffffffffffffffffffffffffffffffffffffffff161480612b2f57508373ffffffffffffffffffffffffffffffffffffffff16612b1784610d48565b73ffffffffffffffffffffffffffffffffffffffff16145b80612b405750612b3f81856123f1565b5b91505092915050565b8273ffffffffffffffffffffffffffffffffffffffff16612b6982611305565b73ffffffffffffffffffffffffffffffffffffffff1614612bbf576040517f08c379a0000000000000000000000000000000000000000000000000000000008152600401612bb690615506565b60405180910390fd5b600073ffffffffffffffffffffffffffffffffffffffff168273ffffffffffffffffffffffffffffffffffffffff161415612c2f576040517f08c379a0000000000000000000000000000000000000000000000000000000008152600401612c2690615598565b60405180910390fd5b6000600860008381526020019081526020016000205414612c85576040517f08c379a0000000000000000000000000000000000000000000000000000000008152600401612c7c90615650565b60405180910390fd5b612c908383836135b8565b612c9b60008261294e565b6001600460008573ffffffffffffffffffffffffffffffffffffffff1673ffffffffffffffffffffffffffffffffffffffff1681526020019081526020016000206000828254612ceb91906148ac565b925050819055506001600460008473ffffffffffffffffffffffffffffffffffffffff1673ffffffffffffffffffffffffffffffffffffffff1681526020019081526020016000206000828254612d429190615130565b92505081905550816003600083815260200190815260200160002060006101000a81548173ffffffffffffffffffffffffffffffffffffffff021916908373ffffffffffffffffffffffffffffffffffffffff160217905550808273ffffffffffffffffffffffffffffffffffffffff168473ffffffffffffffffffffffffffffffffffffffff167fddf252ad1be2c89b69c2b068fc378daa952ba7f163c4a11628f55a4df523b3ef60405160405180910390a4505050565b60008060009054906101000a900473ffffffffffffffffffffffffffffffffffffffff169050816000806101000a81548173ffffffffffffffffffffffffffffffffffffffff021916908373ffffffffffffffffffffffffffffffffffffffff1602179055508173ffffffffffffffffffffffffffffffffffffffff168173ffffffffffffffffffffffffffffffffffffffff167f8be0079c531659141344cd1fd0a4f28419497f9722a3daafe3b4186f6b6457e060405160405180910390a35050565b6001816000016000828254019250508190555050565b600073ffffffffffffffffffffffffffffffffffffffff168273ffffffffffffffffffffffffffffffffffffffff161415612f45576040517f08c379a0000000000000000000000000000000000000000000000000000000008152600401612f3c906156bc565b60405180910390fd5b612f4e816128da565b15612f8e576040517f08c379a0000000000000000000000000000000000000000000000000000000008152600401612f8590615728565b60405180910390fd5b612f9a600083836135b8565b6001600460008473ffffffffffffffffffffffffffffffffffffffff1673ffffffffffffffffffffffffffffffffffffffff1681526020019081526020016000206000828254612fea9190615130565b92505081905550816003600083815260200190815260200160002060006101000a81548173ffffffffffffffffffffffffffffffffffffffff021916908373ffffffffffffffffffffffffffffffffffffffff160217905550816007600083815260200190815260200160002060006101000a81548173ffffffffffffffffffffffffffffffffffffffff021916908373ffffffffffffffffffffffffffffffffffffffff160217905550808273ffffffffffffffffffffffffffffffffffffffff16600073ffffffffffffffffffffffffffffffffffffffff167fddf252ad1be2c89b69c2b068fc378daa952ba7f163c4a11628f55a4df523b3ef60405160405180910390a45050565b600080600860008481526020019081526020016000205414159050919050565b8173ffffffffffffffffffffffffffffffffffffffff168373ffffffffffffffffffffffffffffffffffffffff161415613184576040517f08c379a000000000000000000000000000000000000000000000000000000000815260040161317b90615794565b60405180910390fd5b80600660008573ffffffffffffffffffffffffffffffffffffffff1673ffffffffffffffffffffffffffffffffffffffff16815260200190815260200160002060008473ffffffffffffffffffffffffffffffffffffffff1673ffffffffffffffffffffffffffffffffffffffff16815260200190815260200160002060006101000a81548160ff0219169083151502179055508173ffffffffffffffffffffffffffffffffffffffff168373ffffffffffffffffffffffffffffffffffffffff167f17307eab39ab6107e8899845ad3d59bd9653f200f220920489ca2b5937696c318360405161327591906138a0565b60405180910390a3505050565b61328d848484612b49565b613299848484846135bd565b6132d8576040517f08c379a00000000000000000000000000000000000000000000000000000000081526004016132cf90615826565b60405180910390fd5b50505050565b60606000821415613326576040518060400160405280600181526020017f3000000000000000000000000000000000000000000000000000000000000000815250905061343a565b600082905060005b6000821461335857808061334190615846565b915050600a8261335191906150ff565b915061332e565b60008167ffffffffffffffff81111561337457613373613b31565b5b6040519080825280601f01601f1916602001820160405280156133a65781602001600182028036833780820191505090505b5090505b60008514613433576001826133bf91906148ac565b9150600a856133ce919061588f565b60306133da9190615130565b60f81b8183815181106133f0576133ef6158c0565b5b60200101907effffffffffffffffffffffffffffffffffffffffffffffffffffffffffffff1916908160001a905350600a8561342c91906150ff565b94506133aa565b8093505050505b919050565b6060600082511415613462576040518060200160405280600081525090506135b3565b60006040518060600160405280604081526020016159d360409139905060006003600285516134919190615130565b61349b91906150ff565b60046134a79190614a89565b905060006020826134b89190615130565b67ffffffffffffffff8111156134d1576134d0613b31565b5b6040519080825280601f01601f1916602001820160405280156135035781602001600182028036833780820191505090505b509050818152600183018586518101602084015b81831015613572576003830192508251603f8160121c168501518253600182019150603f81600c1c168501518253600182019150603f8160061c168501518253600182019150603f8116850151825360018201915050613517565b60038951066001811461358c576002811461359c576135a7565b613d3d60f01b60028303526135a7565b603d60f81b60018303525b50505050508093505050505b919050565b505050565b60006135de8473ffffffffffffffffffffffffffffffffffffffff16613745565b15613738578373ffffffffffffffffffffffffffffffffffffffff1663150b7a02613607612946565b8786866040518563ffffffff1660e01b81526004016136299493929190615944565b6020604051808303816000875af192505050801561366557506040513d601f19601f8201168201806040525081019061366291906159a5565b60015b6136e8573d8060008114613695576040519150601f19603f3d011682016040523d82523d6000602084013e61369a565b606091505b506000815114156136e0576040517f08c379a00000000000000000000000000000000000000000000000000000000081526004016136d790615826565b60405180910390fd5b805181602001fd5b63150b7a0260e01b7bffffffffffffffffffffffffffffffffffffffffffffffffffffffff1916817bffffffffffffffffffffffffffffffffffffffffffffffffffffffff19161491505061373d565b600190505b949350505050565b600080823b905060008111915050919050565b82805461376490614248565b90600052602060002090601f01602090048101928261378657600085556137cd565b82601f1061379f57805160ff19168380011785556137cd565b828001600101855582156137cd579182015b828111156137cc5782518255916020019190600101906137b1565b5b5090506137da91906137de565b5090565b5b808211156137f75760008160009055506001016137df565b5090565b6000604051905090565b600080fd5b600080fd5b6000819050919050565b6138228161380f565b811461382d57600080fd5b50565b60008135905061383f81613819565b92915050565b6000806040838503121561385c5761385b613805565b5b600061386a85828601613830565b925050602061387b85828601613830565b9150509250929050565b60008115159050919050565b61389a81613885565b82525050565b60006020820190506138b56000830184613891565b92915050565b60007fffffffff0000000000000000000000000000000000000000000000000000000082169050919050565b6138f0816138bb565b81146138fb57600080fd5b50565b60008135905061390d816138e7565b92915050565b60006020828403121561392957613928613805565b5b6000613937848285016138fe565b91505092915050565b600060ff82169050919050565b61395681613940565b82525050565b6000602082019050613971600083018461394d565b92915050565b600081519050919050565b600082825260208201905092915050565b60005b838110156139b1578082015181840152602081019050613996565b838111156139c0576000848401525b50505050565b6000601f19601f8301169050919050565b60006139e282613977565b6139ec8185613982565b93506139fc818560208601613993565b613a05816139c6565b840191505092915050565b60006020820190508181036000830152613a2a81846139d7565b905092915050565b600060208284031215613a4857613a47613805565b5b6000613a5684828501613830565b91505092915050565b600073ffffffffffffffffffffffffffffffffffffffff82169050919050565b6000613a8a82613a5f565b9050919050565b613a9a81613a7f565b82525050565b6000602082019050613ab56000830184613a91565b92915050565b613ac481613a7f565b8114613acf57600080fd5b50565b600081359050613ae181613abb565b92915050565b60008060408385031215613afe57613afd613805565b5b6000613b0c85828601613ad2565b9250506020613b1d85828601613830565b9150509250929050565b600080fd5b600080fd5b7f4e487b7100000000000000000000000000000000000000000000000000000000600052604160045260246000fd5b613b69826139c6565b810181811067ffffffffffffffff82111715613b8857613b87613b31565b5b80604052505050565b6000613b9b6137fb565b9050613ba78282613b60565b919050565b600067ffffffffffffffff821115613bc757613bc6613b31565b5b613bd0826139c6565b9050602081019050919050565b82818337600083830152505050565b6000613bff613bfa84613bac565b613b91565b905082815260208101848484011115613c1b57613c1a613b2c565b5b613c26848285613bdd565b509392505050565b600082601f830112613c4357613c42613b27565b5b8135613c53848260208601613bec565b91505092915050565b60008060408385031215613c7357613c72613805565b5b600083013567ffffffffffffffff811115613c9157613c9061380a565b5b613c9d85828601613c2e565b9250506020613cae85828601613830565b9150509250929050565b613cc18161380f565b82525050565b6000602082019050613cdc6000830184613cb8565b92915050565b600080600060608486031215613cfb57613cfa613805565b5b6000613d0986828701613ad2565b9350506020613d1a86828701613ad2565b9250506040613d2b86828701613830565b9150509250925092565b600060208284031215613d4b57613d4a613805565b5b600082013567ffffffffffffffff811115613d6957613d6861380a565b5b613d7584828501613c2e565b91505092915050565b600060208284031215613d9457613d93613805565b5b6000613da284828501613ad2565b91505092915050565b60008060408385031215613dc257613dc1613805565b5b600083013567ffffffffffffffff811115613de057613ddf61380a565b5b613dec85828601613c2e565b9250506020613dfd85828601613ad2565b9150509250929050565b60008060408385031215613e1e57613e1d613805565b5b6000613e2c85828601613830565b925050602083013567ffffffffffffffff811115613e4d57613e4c61380a565b5b613e5985828601613c2e565b9150509250929050565b613e6c81613885565b8114613e7757600080fd5b50565b600081359050613e8981613e63565b92915050565b60008060408385031215613ea657613ea5613805565b5b6000613eb485828601613ad2565b9250506020613ec585828601613e7a565b9150509250929050565b600067ffffffffffffffff821115613eea57613ee9613b31565b5b613ef3826139c6565b9050602081019050919050565b6000613f13613f0e84613ecf565b613b91565b905082815260208101848484011115613f2f57613f2e613b2c565b5b613f3a848285613bdd565b509392505050565b600082601f830112613f5757613f56613b27565b5b8135613f67848260208601613f00565b91505092915050565b60008060008060808587031215613f8a57613f89613805565b5b6000613f9887828801613ad2565b9450506020613fa987828801613ad2565b9350506040613fba87828801613830565b925050606085013567ffffffffffffffff811115613fdb57613fda61380a565b5b613fe787828801613f42565b91505092959194509250565b613ffc81613940565b811461400757600080fd5b50565b60008135905061401981613ff3565b92915050565b60006020828403121561403557614034613805565b5b60006140438482850161400a565b91505092915050565b6000806040838503121561406357614062613805565b5b600061407185828601613ad2565b925050602061408285828601613ad2565b9150509250929050565b600080604083850312156140a3576140a2613805565b5b60006140b185828601613830565b92505060206140c285828601613ad2565b9150509250929050565b7f7072696365206d7573742062652067726561746572207468616e20393920776560008201527f6900000000000000000000000000000000000000000000000000000000000000602082015250565b6000614128602183613982565b9150614133826140cc565b604082019050919050565b600060208201905081810360008301526141578161411b565b9050919050565b7f796f7520617265206e6f7420746865206f776e6572206f66207468697320746f60008201527f6b656e2c20796f752063616e206e6f742073656c6c2069740000000000000000602082015250565b60006141ba603883613982565b91506141c58261415e565b604082019050919050565b600060208201905081810360008301526141e9816141ad565b9050919050565b60006040820190506142056000830185613cb8565b6142126020830184613cb8565b9392505050565b7f4e487b7100000000000000000000000000000000000000000000000000000000600052602260045260246000fd5b6000600282049050600182168061426057607f821691505b6020821081141561427457614273614219565b5b50919050565b7f4552433732313a20617070726f76656420717565727920666f72206e6f6e657860008201527f697374656e7420746f6b656e0000000000000000000000000000000000000000602082015250565b60006142d6602c83613982565b91506142e18261427a565b604082019050919050565b60006020820190508181036000830152614305816142c9565b9050919050565b7f4552433732313a20617070726f76616c20746f2063757272656e74206f776e6560008201527f7200000000000000000000000000000000000000000000000000000000000000602082015250565b6000614368602183613982565b91506143738261430c565b604082019050919050565b600060208201905081810360008301526143978161435b565b9050919050565b7f4552433732313a20617070726f76652063616c6c6572206973206e6f74206f7760008201527f6e6572206e6f7220617070726f76656420666f7220616c6c0000000000000000602082015250565b60006143fa603883613982565b91506144058261439e565b604082019050919050565b60006020820190508181036000830152614429816143ed565b9050919050565b7f4552433732313a207472616e736665722063616c6c6572206973206e6f74206f60008201527f776e6572206e6f7220617070726f766564000000000000000000000000000000602082015250565b600061448c603183613982565b915061449782614430565b604082019050919050565b600060208201905081810360008301526144bb8161447f565b9050919050565b7f4f776e61626c653a2063616c6c6572206973206e6f7420746865206f776e6572600082015250565b60006144f8602083613982565b9150614503826144c2565b602082019050919050565b60006020820190508181036000830152614527816144eb565b9050919050565b7f746f6b656e206e6f7420666f722073616c650000000000000000000000000000600082015250565b6000614564601283613982565b915061456f8261452e565b602082019050919050565b6000602082019050818103600083015261459381614557565b9050919050565b7f796f7520617265206e6f7420746865206f776e6572206f66207468697320746f60008201527f6b656e2c20736f20796f752063616e6e6f742064652d6c697374206974000000602082015250565b60006145f6603d83613982565b91506146018261459a565b604082019050919050565b60006020820190508181036000830152614625816145e9565b9050919050565b6000819050919050565b6000819050919050565b600061465b6146566146518461462c565b614636565b61380f565b9050919050565b61466b81614640565b82525050565b60006040820190506146866000830185613cb8565b6146936020830184614662565b9392505050565b7f546f6b656e494420646f6573206e6f7420657869737421000000000000000000600082015250565b60006146d0601783613982565b91506146db8261469a565b602082019050919050565b600060208201905081810360008301526146ff816146c3565b9050919050565b600081905092915050565b600061471c82613977565b6147268185614706565b9350614736818560208601613993565b80840191505092915050565b600061474e8284614711565b915081905092915050565b7f4552433732313a206f776e657220717565727920666f72206e6f6e657869737460008201527f656e7420746f6b656e0000000000000000000000000000000000000000000000602082015250565b60006147b5602983613982565b91506147c082614759565b604082019050919050565b600060208201905081810360008301526147e4816147a8565b9050919050565b7f4552433732313a2062616c616e636520717565727920666f7220746865207a6560008201527f726f206164647265737300000000000000000000000000000000000000000000602082015250565b6000614847602a83613982565b9150614852826147eb565b604082019050919050565b600060208201905081810360008301526148768161483a565b9050919050565b7f4e487b7100000000000000000000000000000000000000000000000000000000600052601160045260246000fd5b60006148b78261380f565b91506148c28361380f565b9250828210156148d5576148d461487d565b5b828203905092915050565b7f7061796d656e74206e6f742073756666696369656e7400000000000000000000600082015250565b6000614916601683613982565b9150614921826148e0565b602082019050919050565b6000602082019050818103600083015261494581614909565b9050919050565b7f7468697320737472696e672068617320616c7265616479206265656e206d696e60008201527f7465640000000000000000000000000000000000000000000000000000000000602082015250565b60006149a8602383613982565b91506149b38261494c565b604082019050919050565b600060208201905081810360008301526149d78161499b565b9050919050565b60008190508160005260206000209050919050565b60008154614a0081614248565b614a0a8186614706565b94506001821660008114614a255760018114614a3657614a69565b60ff19831686528186019350614a69565b614a3f856149de565b60005b83811015614a6157815481890152600182019150602081019050614a42565b838801955050505b50505092915050565b6000614a7e82846149f3565b915081905092915050565b6000614a948261380f565b9150614a9f8361380f565b9250817fffffffffffffffffffffffffffffffffffffffffffffffffffffffffffffffff0483118215151615614ad857614ad761487d565b5b828202905092915050565b7f796f7520617265206e6f7420746865206f776e6572206f66207468697320746f60008201527f6b656e2c20736f20796f752063616e6e6f7420617070656e6420746f20697400602082015250565b6000614b3f603f83613982565b9150614b4a82614ae3565b604082019050919050565b60006020820190508181036000830152614b6e81614b32565b9050919050565b7f7468697320746f6b656e206973206c6f636b65642c20736f206974206d61792060008201527f6e6f74206265206d6f6469666965640000000000000000000000000000000000602082015250565b6000614bd1602f83613982565b9150614bdc82614b75565b604082019050919050565b60006020820190508181036000830152614c0081614bc4565b9050919050565b7f7468697320746f6b656e20697320757020666f722073616c652c20736f20697460008201527f2063616e6e6f7420626520617070656e656420746f0000000000000000000000602082015250565b6000614c63603583613982565b9150614c6e82614c07565b604082019050919050565b60006020820190508181036000830152614c9281614c56565b9050919050565b6000614ca58285614711565b9150614cb18284614711565b91508190509392505050565b6000604082019050614cd26000830185613cb8565b614cdf6020830184613a91565b9392505050565b7f726f79616c7479206d7573742062652062656c6f772031303025000000000000600082015250565b6000614d1c601a83613982565b9150614d2782614ce6565b602082019050919050565b60006020820190508181036000830152614d4b81614d0f565b9050919050565b60008190508160005260206000209050919050565b60008154614d7481614248565b614d7e8186614706565b94506001821660008114614d995760018114614daa57614ddd565b60ff19831686528186019350614ddd565b614db385614d52565b60005b83811015614dd557815481890152600182019150602081019050614db6565b838801955050505b50505092915050565b6000614df28285614d67565b9150614dfe8284614711565b91508190509392505050565b7f7b0a09226e616d65223a2022496e2057726974696e6720230000000000000000600082015250565b6000614e40601883614706565b9150614e4b82614e0a565b601882019050919050565b7f222c0a0922737472696e67223a20220000000000000000000000000000000000600082015250565b6000614e8c600f83614706565b9150614e9782614e56565b600f82019050919050565b7f222c0a092265787465726e616c5f75726c223a20220000000000000000000000600082015250565b6000614ed8601583614706565b9150614ee382614ea2565b601582019050919050565b7f222c0a09226465736372697074696f6e223a2022000000000000000000000000600082015250565b6000614f24601483614706565b9150614f2f82614eee565b601482019050919050565b7f222c0a0922746f6b656e4964223a202200000000000000000000000000000000600082015250565b6000614f70601083614706565b9150614f7b82614f3a565b601082019050919050565b7f222c0a0922696d6167655f64617461223a202200000000000000000000000000600082015250565b6000614fbc601383614706565b9150614fc782614f86565b601382019050919050565b7f220a7d0000000000000000000000000000000000000000000000000000000000600082015250565b6000615008600383614706565b915061501382614fd2565b600382019050919050565b600061502982614e33565b9150615035828a614711565b915061504082614e7f565b915061504c8289614711565b915061505782614ecb565b91506150638288614d67565b915061506f8287614711565b915061507a82614f17565b91506150868286614d67565b915061509182614f63565b915061509d8285614711565b91506150a882614faf565b91506150b48284614711565b91506150bf82614ffb565b915081905098975050505050505050565b7f4e487b7100000000000000000000000000000000000000000000000000000000600052601260045260246000fd5b600061510a8261380f565b91506151158361380f565b925082615125576151246150d0565b5b828204905092915050565b600061513b8261380f565b91506151468361380f565b9250827fffffffffffffffffffffffffffffffffffffffffffffffffffffffffffffffff0382111561517b5761517a61487d565b5b828201905092915050565b7f696e73756666696369656e742076616c75650000000000000000000000000000600082015250565b60006151bc601283613982565b91506151c782615186565b602082019050919050565b600060208201905081810360008301526151eb816151af565b9050919050565b60006151fd82613940565b915061520883613940565b92508282101561521b5761521a61487d565b5b828203905092915050565b7f796f7520617265206e6f7420746865206f776e6572206f66207468697320746f60008201527f6b656e0000000000000000000000000000000000000000000000000000000000602082015250565b6000615282602383613982565b915061528d82615226565b604082019050919050565b600060208201905081810360008301526152b181615275565b9050919050565b7f4f776e61626c653a206e6577206f776e657220697320746865207a65726f206160008201527f6464726573730000000000000000000000000000000000000000000000000000602082015250565b6000615314602683613982565b915061531f826152b8565b604082019050919050565b6000602082019050818103600083015261534381615307565b9050919050565b7f5468697320746f6b656e20697320757020666f722073616c652c206974206d7560008201527f73742062652064652d6c6973746564206265666f72652069742063616e20617060208201527f70726f766520616e206164647265737300000000000000000000000000000000604082015250565b60006153cc605083613982565b91506153d78261534a565b606082019050919050565b600060208201905081810360008301526153fb816153bf565b9050919050565b7f4552433732313a206f70657261746f7220717565727920666f72206e6f6e657860008201527f697374656e7420746f6b656e0000000000000000000000000000000000000000602082015250565b600061545e602c83613982565b915061546982615402565b604082019050919050565b6000602082019050818103600083015261548d81615451565b9050919050565b7f4552433732313a207472616e73666572206f6620746f6b656e2074686174206960008201527f73206e6f74206f776e0000000000000000000000000000000000000000000000602082015250565b60006154f0602983613982565b91506154fb82615494565b604082019050919050565b6000602082019050818103600083015261551f816154e3565b9050919050565b7f4552433732313a207472616e7366657220746f20746865207a65726f2061646460008201527f7265737300000000000000000000000000000000000000000000000000000000602082015250565b6000615582602483613982565b915061558d82615526565b604082019050919050565b600060208201905081810360008301526155b181615575565b9050919050565b7f5468697320746f6b656e20697320757020666f722073616c652c206974206d7560008201527f73742062652064652d6c6973746564206265666f72652069742063616e20626560208201527f207472616e736665727265640000000000000000000000000000000000000000604082015250565b600061563a604c83613982565b9150615645826155b8565b606082019050919050565b600060208201905081810360008301526156698161562d565b9050919050565b7f4552433732313a206d696e7420746f20746865207a65726f2061646472657373600082015250565b60006156a6602083613982565b91506156b182615670565b602082019050919050565b600060208201905081810360008301526156d581615699565b9050919050565b7f4552433732313a20746f6b656e20616c7265616479206d696e74656400000000600082015250565b6000615712601c83613982565b915061571d826156dc565b602082019050919050565b6000602082019050818103600083015261574181615705565b9050919050565b7f4552433732313a20617070726f766520746f2063616c6c657200000000000000600082015250565b600061577e601983613982565b915061578982615748565b602082019050919050565b600060208201905081810360008301526157ad81615771565b9050919050565b7f4552433732313a207472616e7366657220746f206e6f6e20455243373231526560008201527f63656976657220696d706c656d656e7465720000000000000000000000000000602082015250565b6000615810603283613982565b915061581b826157b4565b604082019050919050565b6000602082019050818103600083015261583f81615803565b9050919050565b60006158518261380f565b91507fffffffffffffffffffffffffffffffffffffffffffffffffffffffffffffffff8214156158845761588361487d565b5b600182019050919050565b600061589a8261380f565b91506158a58361380f565b9250826158b5576158b46150d0565b5b828206905092915050565b7f4e487b7100000000000000000000000000000000000000000000000000000000600052603260045260246000fd5b600081519050919050565b600082825260208201905092915050565b6000615916826158ef565b61592081856158fa565b9350615930818560208601613993565b615939816139c6565b840191505092915050565b60006080820190506159596000830187613a91565b6159666020830186613a91565b6159736040830185613cb8565b8181036060830152615985818461590b565b905095945050505050565b60008151905061599f816138e7565b92915050565b6000602082840312156159bb576159ba613805565b5b60006159c984828501615990565b9150509291505056fe4142434445464748494a4b4c4d4e4f505152535455565758595a6162636465666768696a6b6c6d6e6f707172737475767778797a303132333435363738392b2fa26469706673582212203799ab1ed95b01be7f24eed57c4daaaee06793d3582d43dbe881221a76a9791464736f6c634300080c003368747470733a2f2f696e77726974696e672e696f2f746578742f3f746f6b656e49443d68747470733a2f2f696e77726974696e676170692e636f6d2f696e77726974696e672f6765745f7376672e7068703f746f6b656e49443d",
  "linkReferences": {},
  "deployedLinkReferences": {}
}