{
  "_format": "hh-sol-artifact-1",
  "contractName": "InWritingPromoCodes",
  "sourceName": "contracts/InWritingPromoCodes.sol",
  "abi": [
    {
      "inputs": [],
      "stateMutability": "nonpayable",
      "type": "constructor"
    },
    {
      "anonymous": false,
      "inputs": [
        {
          "indexed": true,
          "internalType": "address",
          "name": "previousOwner",
          "type": "address"
        },
        {
          "indexed": true,
          "internalType": "address",
          "name": "newOwner",
          "type": "address"
        }
      ],
      "name": "OwnershipTransferred",
      "type": "event"
    },
    {
      "inputs": [
        {
          "internalType": "string",
          "name": "affiliate_code",
          "type": "string"
        },
        {
          "internalType": "address",
          "name": "addr",
          "type": "address"
        },
        {
          "internalType": "uint8",
          "name": "discount",
          "type": "uint8"
        },
        {
          "internalType": "uint8",
          "name": "commission",
          "type": "uint8"
        }
      ],
      "name": "add_affiliate",
      "outputs": [],
      "stateMutability": "nonpayable",
      "type": "function"
    },
    {
      "inputs": [
        {
          "internalType": "string",
          "name": "promo_code",
          "type": "string"
        },
        {
          "internalType": "uint256",
          "name": "num",
          "type": "uint256"
        },
        {
          "internalType": "uint8",
          "name": "discount",
          "type": "uint8"
        }
      ],
      "name": "add_promo",
      "outputs": [],
      "stateMutability": "nonpayable",
      "type": "function"
    },
    {
      "inputs": [
        {
          "internalType": "string",
          "name": "affiliate_code",
          "type": "string"
        }
      ],
      "name": "become_affiliate",
      "outputs": [],
      "stateMutability": "payable",
      "type": "function"
    },
    {
      "inputs": [
        {
          "internalType": "string",
          "name": "affiliate_code",
          "type": "string"
        }
      ],
      "name": "get_affiliate_address",
      "outputs": [
        {
          "internalType": "address",
          "name": "",
          "type": "address"
        }
      ],
      "stateMutability": "view",
      "type": "function"
    },
    {
      "inputs": [
        {
          "internalType": "string",
          "name": "affiliate_code",
          "type": "string"
        }
      ],
      "name": "get_affiliate_commission",
      "outputs": [
        {
          "internalType": "uint8",
          "name": "",
          "type": "uint8"
        }
      ],
      "stateMutability": "view",
      "type": "function"
    },
    {
      "inputs": [
        {
          "internalType": "string",
          "name": "affiliate_code",
          "type": "string"
        }
      ],
      "name": "get_affiliate_discount",
      "outputs": [
        {
          "internalType": "uint8",
          "name": "",
          "type": "uint8"
        }
      ],
      "stateMutability": "view",
      "type": "function"
    },
    {
      "inputs": [
        {
          "internalType": "string",
          "name": "affiliate_code",
          "type": "string"
        }
      ],
      "name": "get_affiliate_used",
      "outputs": [
        {
          "internalType": "bool",
          "name": "",
          "type": "bool"
        }
      ],
      "stateMutability": "view",
      "type": "function"
    },
    {
      "inputs": [],
      "name": "get_become_affiliate_commission",
      "outputs": [
        {
          "internalType": "uint8",
          "name": "",
          "type": "uint8"
        }
      ],
      "stateMutability": "view",
      "type": "function"
    },
    {
      "inputs": [],
      "name": "get_become_affiliate_discount",
      "outputs": [
        {
          "internalType": "uint8",
          "name": "",
          "type": "uint8"
        }
      ],
      "stateMutability": "view",
      "type": "function"
    },
    {
      "inputs": [],
      "name": "get_become_affiliate_price",
      "outputs": [
        {
          "internalType": "uint256",
          "name": "",
          "type": "uint256"
        }
      ],
      "stateMutability": "view",
      "type": "function"
    },
    {
      "inputs": [
        {
          "internalType": "string",
          "name": "affiliate_code",
          "type": "string"
        }
      ],
      "name": "get_price_with_affiliate",
      "outputs": [
        {
          "internalType": "uint256",
          "name": "",
          "type": "uint256"
        }
      ],
      "stateMutability": "view",
      "type": "function"
    },
    {
      "inputs": [
        {
          "internalType": "string",
          "name": "promo_code",
          "type": "string"
        }
      ],
      "name": "get_price_with_promo",
      "outputs": [
        {
          "internalType": "uint256",
          "name": "",
          "type": "uint256"
        }
      ],
      "stateMutability": "view",
      "type": "function"
    },
    {
      "inputs": [
        {
          "internalType": "string",
          "name": "promo_code",
          "type": "string"
        }
      ],
      "name": "get_promo_discount",
      "outputs": [
        {
          "internalType": "uint8",
          "name": "",
          "type": "uint8"
        }
      ],
      "stateMutability": "view",
      "type": "function"
    },
    {
      "inputs": [
        {
          "internalType": "string",
          "name": "promo_code",
          "type": "string"
        }
      ],
      "name": "get_promo_remaining_uses",
      "outputs": [
        {
          "internalType": "uint256",
          "name": "",
          "type": "uint256"
        }
      ],
      "stateMutability": "view",
      "type": "function"
    },
    {
      "inputs": [
        {
          "internalType": "string",
          "name": "str",
          "type": "string"
        },
        {
          "internalType": "string",
          "name": "affiliate_code",
          "type": "string"
        }
      ],
      "name": "mint_affiliate_NFT",
      "outputs": [
        {
          "internalType": "uint256",
          "name": "",
          "type": "uint256"
        }
      ],
      "stateMutability": "payable",
      "type": "function"
    },
    {
      "inputs": [
        {
          "internalType": "string",
          "name": "str",
          "type": "string"
        },
        {
          "internalType": "string",
          "name": "affiliate_code",
          "type": "string"
        },
        {
          "internalType": "address",
          "name": "addr",
          "type": "address"
        }
      ],
      "name": "mint_and_send_affiliate_NFT",
      "outputs": [
        {
          "internalType": "uint256",
          "name": "",
          "type": "uint256"
        }
      ],
      "stateMutability": "payable",
      "type": "function"
    },
    {
      "inputs": [
        {
          "internalType": "string",
          "name": "str",
          "type": "string"
        },
        {
          "internalType": "string",
          "name": "promo_code",
          "type": "string"
        }
      ],
      "name": "mint_promo_NFT",
      "outputs": [
        {
          "internalType": "uint256",
          "name": "",
          "type": "uint256"
        }
      ],
      "stateMutability": "payable",
      "type": "function"
    },
    {
      "inputs": [],
      "name": "owner",
      "outputs": [
        {
          "internalType": "address",
          "name": "",
          "type": "address"
        }
      ],
      "stateMutability": "view",
      "type": "function"
    },
    {
      "inputs": [
        {
          "internalType": "string",
          "name": "affiliate_code",
          "type": "string"
        }
      ],
      "name": "remove_affiliate",
      "outputs": [],
      "stateMutability": "nonpayable",
      "type": "function"
    },
    {
      "inputs": [],
      "name": "renounceOwnership",
      "outputs": [],
      "stateMutability": "nonpayable",
      "type": "function"
    },
    {
      "inputs": [
        {
          "internalType": "uint8",
          "name": "commission",
          "type": "uint8"
        }
      ],
      "name": "set_become_affiliate_commission",
      "outputs": [],
      "stateMutability": "nonpayable",
      "type": "function"
    },
    {
      "inputs": [
        {
          "internalType": "uint8",
          "name": "discount",
          "type": "uint8"
        }
      ],
      "name": "set_become_affiliate_discount",
      "outputs": [],
      "stateMutability": "nonpayable",
      "type": "function"
    },
    {
      "inputs": [
        {
          "internalType": "uint256",
          "name": "price",
          "type": "uint256"
        }
      ],
      "name": "set_become_affiliate_price",
      "outputs": [],
      "stateMutability": "nonpayable",
      "type": "function"
    },
    {
      "inputs": [
        {
          "internalType": "address",
          "name": "newOwner",
          "type": "address"
        }
      ],
      "name": "transferOwnership",
      "outputs": [],
      "stateMutability": "nonpayable",
      "type": "function"
    },
    {
      "inputs": [
        {
          "internalType": "uint256",
          "name": "amt",
          "type": "uint256"
        }
      ],
      "name": "withdraw",
      "outputs": [],
      "stateMutability": "nonpayable",
      "type": "function"
    },
    {
      "stateMutability": "payable",
      "type": "receive"
    }
  ],
  "bytecode": "0x608060405273d9bd0a41aa6fadc0e9ea5eabc4d816c2ac277ce7600160006101000a81548173ffffffffffffffffffffffffffffffffffffffff021916908373ffffffffffffffffffffffffffffffffffffffff160217905550600160009054906101000a900473ffffffffffffffffffffffffffffffffffffffff16600260006101000a81548173ffffffffffffffffffffffffffffffffffffffff021916908373ffffffffffffffffffffffffffffffffffffffff160217905550600a8060006101000a81548160ff021916908360ff160217905550600a8060016101000a81548160ff021916908360ff1602179055506000600b553480156200010457600080fd5b5062000125620001196200012b60201b60201c565b6200013360201b60201c565b620001f7565b600033905090565b60008060009054906101000a900473ffffffffffffffffffffffffffffffffffffffff169050816000806101000a81548173ffffffffffffffffffffffffffffffffffffffff021916908373ffffffffffffffffffffffffffffffffffffffff1602179055508173ffffffffffffffffffffffffffffffffffffffff168173ffffffffffffffffffffffffffffffffffffffff167f8be0079c531659141344cd1fd0a4f28419497f9722a3daafe3b4186f6b6457e060405160405180910390a35050565b612e5a80620002076000396000f3fe60806040526004361061012a5760003560e01c80632d6c5b76146101365780632e1a7d4d1461017357806345ddb8181461019c578063551618de146101c55780635631aaf8146101f05780635c5fa3c41461022d5780635cb1899f1461025d5780635dc0a2881461029a578063616cd0fd146102d757806367304955146103145780636790509c1461033d578063715018a614610366578063772b2ed61461037d5780638da5cb5b146103a85780639083eada146103d3578063a4281d6114610410578063b116e76214610440578063b7e141c114610469578063b8920d2b14610494578063c18d84bc146104bd578063d15fd05a146104e6578063d953c8e614610502578063e573295d14610532578063ea8a4a101461056f578063f2fde38b146105ac57610131565b3661013157005b600080fd5b34801561014257600080fd5b5061015d600480360381019061015891906120fe565b6105d5565b60405161016a9190612163565b60405180910390f35b34801561017f57600080fd5b5061019a600480360381019061019591906121b4565b61060a565b005b3480156101a857600080fd5b506101c360048036038101906101be919061220d565b6106e4565b005b3480156101d157600080fd5b506101da61077e565b6040516101e79190612249565b60405180910390f35b3480156101fc57600080fd5b50610217600480360381019061021291906120fe565b610788565b6040516102249190612163565b60405180910390f35b61024760048036038101906102429190612264565b6107bd565b6040516102549190612249565b60405180910390f35b34801561026957600080fd5b50610284600480360381019061027f91906120fe565b6107d2565b6040516102919190612249565b60405180910390f35b3480156102a657600080fd5b506102c160048036038101906102bc91906120fe565b6107fa565b6040516102ce919061231d565b60405180910390f35b3480156102e357600080fd5b506102fe60048036038101906102f991906120fe565b610842565b60405161030b9190612249565b60405180910390f35b34801561032057600080fd5b5061033b600480360381019061033691906120fe565b61092d565b005b34801561034957600080fd5b50610364600480360381019061035f9190612338565b610a80565b005b34801561037257600080fd5b5061037b610b5b565b005b34801561038957600080fd5b50610392610be3565b60405161039f9190612163565b60405180910390f35b3480156103b457600080fd5b506103bd610bfa565b6040516103ca919061231d565b60405180910390f35b3480156103df57600080fd5b506103fa60048036038101906103f591906120fe565b610c23565b60405161040791906123c2565b60405180910390f35b61042a60048036038101906104259190612409565b610c58565b6040516104379190612249565b60405180910390f35b34801561044c57600080fd5b5061046760048036038101906104629190612494565b61113c565b005b34801561047557600080fd5b5061047e61132c565b60405161048b9190612163565b60405180910390f35b3480156104a057600080fd5b506104bb60048036038101906104b691906121b4565b611343565b005b3480156104c957600080fd5b506104e460048036038101906104df919061220d565b6113c9565b005b61050060048036038101906104fb91906120fe565b611463565b005b61051c60048036038101906105179190612264565b611660565b6040516105299190612249565b60405180910390f35b34801561053e57600080fd5b50610559600480360381019061055491906120fe565b611b5f565b6040516105669190612163565b60405180910390f35b34801561057b57600080fd5b50610596600480360381019061059191906120fe565b611b94565b6040516105a39190612249565b60405180910390f35b3480156105b857600080fd5b506105d360048036038101906105ce9190612517565b611c7f565b005b60006005826040516105e791906125be565b908152602001604051809103902060009054906101000a900460ff169050919050565b610612611d77565b73ffffffffffffffffffffffffffffffffffffffff16610630610bfa565b73ffffffffffffffffffffffffffffffffffffffff1614610686576040517f08c379a000000000000000000000000000000000000000000000000000000000815260040161067d90612632565b60405180910390fd5b4781111561069357600080fd5b61069b610bfa565b73ffffffffffffffffffffffffffffffffffffffff166108fc829081150290604051600060405180830381858888f193505050501580156106e0573d6000803e3d6000fd5b5050565b6106ec611d77565b73ffffffffffffffffffffffffffffffffffffffff1661070a610bfa565b73ffffffffffffffffffffffffffffffffffffffff1614610760576040517f08c379a000000000000000000000000000000000000000000000000000000000815260040161075790612632565b60405180910390fd5b80600a60006101000a81548160ff021916908360ff16021790555050565b6000600b54905090565b600060098260405161079a91906125be565b908152602001604051809103902060009054906101000a900460ff169050919050565b60006107ca838333610c58565b905092915050565b60006004826040516107e491906125be565b9081526020016040518091039020549050919050565b600060078260405161080c91906125be565b908152602001604051809103902060009054906101000a900473ffffffffffffffffffffffffffffffffffffffff169050919050565b6000606460058360405161085691906125be565b908152602001604051809103902060009054906101000a900460ff16606461087e9190612681565b60ff16600260009054906101000a900473ffffffffffffffffffffffffffffffffffffffff1673ffffffffffffffffffffffffffffffffffffffff1663b5ee622b6040518163ffffffff1660e01b8152600401602060405180830381865afa1580156108ee573d6000803e3d6000fd5b505050506040513d601f19601f8201168201806040525081019061091291906126ca565b61091c91906126f7565b6109269190612780565b9050919050565b610935611d77565b73ffffffffffffffffffffffffffffffffffffffff16610953610bfa565b73ffffffffffffffffffffffffffffffffffffffff16146109a9576040517f08c379a00000000000000000000000000000000000000000000000000000000081526004016109a090612632565b60405180910390fd5b60006006826040516109bb91906125be565b908152602001604051809103902060006101000a81548160ff0219169083151502179055506007816040516109f091906125be565b908152602001604051809103902060006101000a81549073ffffffffffffffffffffffffffffffffffffffff0219169055600881604051610a3191906125be565b908152602001604051809103902060006101000a81549060ff0219169055600981604051610a5f91906125be565b908152602001604051809103902060006101000a81549060ff021916905550565b610a88611d77565b73ffffffffffffffffffffffffffffffffffffffff16610aa6610bfa565b73ffffffffffffffffffffffffffffffffffffffff1614610afc576040517f08c379a0000000000000000000000000000000000000000000000000000000008152600401610af390612632565b60405180910390fd5b81600484604051610b0d91906125be565b90815260200160405180910390208190555080600584604051610b3091906125be565b908152602001604051809103902060006101000a81548160ff021916908360ff160217905550505050565b610b63611d77565b73ffffffffffffffffffffffffffffffffffffffff16610b81610bfa565b73ffffffffffffffffffffffffffffffffffffffff1614610bd7576040517f08c379a0000000000000000000000000000000000000000000000000000000008152600401610bce90612632565b60405180910390fd5b610be16000611d7f565b565b6000600a60019054906101000a900460ff16905090565b60008060009054906101000a900473ffffffffffffffffffffffffffffffffffffffff16905090565b6000600682604051610c3591906125be565b908152602001604051809103902060009054906101000a900460ff169050919050565b6000600683604051610c6a91906125be565b908152602001604051809103902060009054906101000a900460ff16610cc5576040517f08c379a0000000000000000000000000000000000000000000000000000000008152600401610cbc90612823565b60405180910390fd5b60006064600885604051610cd991906125be565b908152602001604051809103902060009054906101000a900460ff166064610d019190612681565b60ff16600260009054906101000a900473ffffffffffffffffffffffffffffffffffffffff1673ffffffffffffffffffffffffffffffffffffffff1663b5ee622b6040518163ffffffff1660e01b8152600401602060405180830381865afa158015610d71573d6000803e3d6000fd5b505050506040513d601f19601f82011682018060405250810190610d9591906126ca565b610d9f91906126f7565b610da99190612780565b905080341015610de6600886604051610dc291906125be565b908152602001604051809103902060009054906101000a900460ff1660ff16611e43565b604051602001610df69190612901565b60405160208183030381529060405290610e46576040517f08c379a0000000000000000000000000000000000000000000000000000000008152600401610e3d9190612967565b60405180910390fd5b506000600260009054906101000a900473ffffffffffffffffffffffffffffffffffffffff1673ffffffffffffffffffffffffffffffffffffffff16638d2e41e5600260009054906101000a900473ffffffffffffffffffffffffffffffffffffffff1673ffffffffffffffffffffffffffffffffffffffff1663b5ee622b6040518163ffffffff1660e01b8152600401602060405180830381865afa158015610ef4573d6000803e3d6000fd5b505050506040513d601f19601f82011682018060405250810190610f1891906126ca565b886040518363ffffffff1660e01b8152600401610f359190612967565b60206040518083038185885af1158015610f53573d6000803e3d6000fd5b50505050506040513d601f19601f82011682018060405250810190610f7891906126ca565b9050600260009054906101000a900473ffffffffffffffffffffffffffffffffffffffff1673ffffffffffffffffffffffffffffffffffffffff166323b872dd3086846040518463ffffffff1660e01b8152600401610fd993929190612989565b600060405180830381600087803b158015610ff357600080fd5b505af1158015611007573d6000803e3d6000fd5b5050505060078560405161101b91906125be565b908152602001604051809103902060009054906101000a900473ffffffffffffffffffffffffffffffffffffffff1673ffffffffffffffffffffffffffffffffffffffff166108fc606460098860405161107591906125be565b908152602001604051809103902060009054906101000a900460ff1660ff168561109f91906126f7565b6110a99190612780565b9081150290604051600060405180830381858888f193505050501580156110d4573d6000803e3d6000fd5b5081341115611130573373ffffffffffffffffffffffffffffffffffffffff166108fc833461110391906129c0565b9081150290604051600060405180830381858888f1935050505015801561112e573d6000803e3d6000fd5b505b80925050509392505050565b611144611d77565b73ffffffffffffffffffffffffffffffffffffffff16611162610bfa565b73ffffffffffffffffffffffffffffffffffffffff16146111b8576040517f08c379a00000000000000000000000000000000000000000000000000000000081526004016111af90612632565b60405180910390fd5b6006846040516111c891906125be565b908152602001604051809103902060009054906101000a900460ff1615611224576040517f08c379a000000000000000000000000000000000000000000000000000000000815260040161121b90612a40565b60405180910390fd5b600160068560405161123691906125be565b908152602001604051809103902060006101000a81548160ff0219169083151502179055508260078560405161126c91906125be565b908152602001604051809103902060006101000a81548173ffffffffffffffffffffffffffffffffffffffff021916908373ffffffffffffffffffffffffffffffffffffffff160217905550816008856040516112c991906125be565b908152602001604051809103902060006101000a81548160ff021916908360ff1602179055508060098560405161130091906125be565b908152602001604051809103902060006101000a81548160ff021916908360ff16021790555050505050565b6000600a60009054906101000a900460ff16905090565b61134b611d77565b73ffffffffffffffffffffffffffffffffffffffff16611369610bfa565b73ffffffffffffffffffffffffffffffffffffffff16146113bf576040517f08c379a00000000000000000000000000000000000000000000000000000000081526004016113b690612632565b60405180910390fd5b80600b8190555050565b6113d1611d77565b73ffffffffffffffffffffffffffffffffffffffff166113ef610bfa565b73ffffffffffffffffffffffffffffffffffffffff1614611445576040517f08c379a000000000000000000000000000000000000000000000000000000000815260040161143c90612632565b60405180910390fd5b80600a60016101000a81548160ff021916908360ff16021790555050565b60068160405161147391906125be565b908152602001604051809103902060009054906101000a900460ff16156114cf576040517f08c379a00000000000000000000000000000000000000000000000000000000081526004016114c690612a40565b60405180910390fd5b600b543410156114de57600080fd5b60016006826040516114f091906125be565b908152602001604051809103902060006101000a81548160ff0219169083151502179055503360078260405161152691906125be565b908152602001604051809103902060006101000a81548173ffffffffffffffffffffffffffffffffffffffff021916908373ffffffffffffffffffffffffffffffffffffffff160217905550600a60009054906101000a900460ff1660088260405161159291906125be565b908152602001604051809103902060006101000a81548160ff021916908360ff160217905550600a60019054906101000a900460ff166009826040516115d891906125be565b908152602001604051809103902060006101000a81548160ff021916908360ff160217905550600b5434111561165d573373ffffffffffffffffffffffffffffffffffffffff166108fc600b543461163091906129c0565b9081150290604051600060405180830381858888f1935050505015801561165b573d6000803e3d6000fd5b505b50565b6000803383604051602001611676929190612aa8565b6040516020818303038152906040528051906020012090506003600082815260200190815260200160002060009054906101000a900460ff16156116ef576040517f08c379a00000000000000000000000000000000000000000000000000000000081526004016116e690612b42565b60405180910390fd5b600060048460405161170191906125be565b90815260200160405180910390205411611750576040517f08c379a000000000000000000000000000000000000000000000000000000000815260040161174790612bd4565b60405180910390fd5b6000606460058560405161176491906125be565b908152602001604051809103902060009054906101000a900460ff16606461178c9190612681565b60ff16600260009054906101000a900473ffffffffffffffffffffffffffffffffffffffff1673ffffffffffffffffffffffffffffffffffffffff1663b5ee622b6040518163ffffffff1660e01b8152600401602060405180830381865afa1580156117fc573d6000803e3d6000fd5b505050506040513d601f19601f8201168201806040525081019061182091906126ca565b61182a91906126f7565b6118349190612780565b90508034101561187160058660405161184d91906125be565b908152602001604051809103902060009054906101000a900460ff1660ff16611e43565b6040516020016118819190612c66565b604051602081830303815290604052906118d1576040517f08c379a00000000000000000000000000000000000000000000000000000000081526004016118c89190612967565b60405180910390fd5b5060016003600084815260200190815260200160002060006101000a81548160ff021916908315150217905550600160048560405161191091906125be565b9081526020016040518091039020600082825461192d91906129c0565b925050819055506000600260009054906101000a900473ffffffffffffffffffffffffffffffffffffffff1673ffffffffffffffffffffffffffffffffffffffff16638d2e41e5600260009054906101000a900473ffffffffffffffffffffffffffffffffffffffff1673ffffffffffffffffffffffffffffffffffffffff1663b5ee622b6040518163ffffffff1660e01b8152600401602060405180830381865afa1580156119e1573d6000803e3d6000fd5b505050506040513d601f19601f82011682018060405250810190611a0591906126ca565b886040518363ffffffff1660e01b8152600401611a229190612967565b60206040518083038185885af1158015611a40573d6000803e3d6000fd5b50505050506040513d601f19601f82011682018060405250810190611a6591906126ca565b9050600260009054906101000a900473ffffffffffffffffffffffffffffffffffffffff1673ffffffffffffffffffffffffffffffffffffffff166323b872dd3033846040518463ffffffff1660e01b8152600401611ac693929190612989565b600060405180830381600087803b158015611ae057600080fd5b505af1158015611af4573d6000803e3d6000fd5b5050505081341115611b53573373ffffffffffffffffffffffffffffffffffffffff166108fc8334611b2691906129c0565b9081150290604051600060405180830381858888f19350505050158015611b51573d6000803e3d6000fd5b505b80935050505092915050565b6000600882604051611b7191906125be565b908152602001604051809103902060009054906101000a900460ff169050919050565b60006064600883604051611ba891906125be565b908152602001604051809103902060009054906101000a900460ff166064611bd09190612681565b60ff16600260009054906101000a900473ffffffffffffffffffffffffffffffffffffffff1673ffffffffffffffffffffffffffffffffffffffff1663b5ee622b6040518163ffffffff1660e01b8152600401602060405180830381865afa158015611c40573d6000803e3d6000fd5b505050506040513d601f19601f82011682018060405250810190611c6491906126ca565b611c6e91906126f7565b611c789190612780565b9050919050565b611c87611d77565b73ffffffffffffffffffffffffffffffffffffffff16611ca5610bfa565b73ffffffffffffffffffffffffffffffffffffffff1614611cfb576040517f08c379a0000000000000000000000000000000000000000000000000000000008152600401611cf290612632565b60405180910390fd5b600073ffffffffffffffffffffffffffffffffffffffff168173ffffffffffffffffffffffffffffffffffffffff161415611d6b576040517f08c379a0000000000000000000000000000000000000000000000000000000008152600401611d6290612d05565b60405180910390fd5b611d7481611d7f565b50565b600033905090565b60008060009054906101000a900473ffffffffffffffffffffffffffffffffffffffff169050816000806101000a81548173ffffffffffffffffffffffffffffffffffffffff021916908373ffffffffffffffffffffffffffffffffffffffff1602179055508173ffffffffffffffffffffffffffffffffffffffff168173ffffffffffffffffffffffffffffffffffffffff167f8be0079c531659141344cd1fd0a4f28419497f9722a3daafe3b4186f6b6457e060405160405180910390a35050565b60606000821415611e8b576040518060400160405280600181526020017f30000000000000000000000000000000000000000000000000000000000000008152509050611f9f565b600082905060005b60008214611ebd578080611ea690612d25565b915050600a82611eb69190612780565b9150611e93565b60008167ffffffffffffffff811115611ed957611ed8611fd3565b5b6040519080825280601f01601f191660200182016040528015611f0b5781602001600182028036833780820191505090505b5090505b60008514611f9857600182611f2491906129c0565b9150600a85611f339190612d6e565b6030611f3f9190612d9f565b60f81b818381518110611f5557611f54612df5565b5b60200101907effffffffffffffffffffffffffffffffffffffffffffffffffffffffffffff1916908160001a905350600a85611f919190612780565b9450611f0f565b8093505050505b919050565b6000604051905090565b600080fd5b600080fd5b600080fd5b600080fd5b6000601f19601f8301169050919050565b7f4e487b7100000000000000000000000000000000000000000000000000000000600052604160045260246000fd5b61200b82611fc2565b810181811067ffffffffffffffff8211171561202a57612029611fd3565b5b80604052505050565b600061203d611fa4565b90506120498282612002565b919050565b600067ffffffffffffffff82111561206957612068611fd3565b5b61207282611fc2565b9050602081019050919050565b82818337600083830152505050565b60006120a161209c8461204e565b612033565b9050828152602081018484840111156120bd576120bc611fbd565b5b6120c884828561207f565b509392505050565b600082601f8301126120e5576120e4611fb8565b5b81356120f584826020860161208e565b91505092915050565b60006020828403121561211457612113611fae565b5b600082013567ffffffffffffffff81111561213257612131611fb3565b5b61213e848285016120d0565b91505092915050565b600060ff82169050919050565b61215d81612147565b82525050565b60006020820190506121786000830184612154565b92915050565b6000819050919050565b6121918161217e565b811461219c57600080fd5b50565b6000813590506121ae81612188565b92915050565b6000602082840312156121ca576121c9611fae565b5b60006121d88482850161219f565b91505092915050565b6121ea81612147565b81146121f557600080fd5b50565b600081359050612207816121e1565b92915050565b60006020828403121561222357612222611fae565b5b6000612231848285016121f8565b91505092915050565b6122438161217e565b82525050565b600060208201905061225e600083018461223a565b92915050565b6000806040838503121561227b5761227a611fae565b5b600083013567ffffffffffffffff81111561229957612298611fb3565b5b6122a5858286016120d0565b925050602083013567ffffffffffffffff8111156122c6576122c5611fb3565b5b6122d2858286016120d0565b9150509250929050565b600073ffffffffffffffffffffffffffffffffffffffff82169050919050565b6000612307826122dc565b9050919050565b612317816122fc565b82525050565b6000602082019050612332600083018461230e565b92915050565b60008060006060848603121561235157612350611fae565b5b600084013567ffffffffffffffff81111561236f5761236e611fb3565b5b61237b868287016120d0565b935050602061238c8682870161219f565b925050604061239d868287016121f8565b9150509250925092565b60008115159050919050565b6123bc816123a7565b82525050565b60006020820190506123d760008301846123b3565b92915050565b6123e6816122fc565b81146123f157600080fd5b50565b600081359050612403816123dd565b92915050565b60008060006060848603121561242257612421611fae565b5b600084013567ffffffffffffffff8111156124405761243f611fb3565b5b61244c868287016120d0565b935050602084013567ffffffffffffffff81111561246d5761246c611fb3565b5b612479868287016120d0565b925050604061248a868287016123f4565b9150509250925092565b600080600080608085870312156124ae576124ad611fae565b5b600085013567ffffffffffffffff8111156124cc576124cb611fb3565b5b6124d8878288016120d0565b94505060206124e9878288016123f4565b93505060406124fa878288016121f8565b925050606061250b878288016121f8565b91505092959194509250565b60006020828403121561252d5761252c611fae565b5b600061253b848285016123f4565b91505092915050565b600081519050919050565b600081905092915050565b60005b8381101561257857808201518184015260208101905061255d565b83811115612587576000848401525b50505050565b600061259882612544565b6125a2818561254f565b93506125b281856020860161255a565b80840191505092915050565b60006125ca828461258d565b915081905092915050565b600082825260208201905092915050565b7f4f776e61626c653a2063616c6c6572206973206e6f7420746865206f776e6572600082015250565b600061261c6020836125d5565b9150612627826125e6565b602082019050919050565b6000602082019050818103600083015261264b8161260f565b9050919050565b7f4e487b7100000000000000000000000000000000000000000000000000000000600052601160045260246000fd5b600061268c82612147565b915061269783612147565b9250828210156126aa576126a9612652565b5b828203905092915050565b6000815190506126c481612188565b92915050565b6000602082840312156126e0576126df611fae565b5b60006126ee848285016126b5565b91505092915050565b60006127028261217e565b915061270d8361217e565b9250817fffffffffffffffffffffffffffffffffffffffffffffffffffffffffffffffff048311821515161561274657612745612652565b5b828202905092915050565b7f4e487b7100000000000000000000000000000000000000000000000000000000600052601260045260246000fd5b600061278b8261217e565b91506127968361217e565b9250826127a6576127a5612751565b5b828204905092915050565b7f7468697320616666696c6961746520636f646520646f6573206e6f742065786960008201527f7374000000000000000000000000000000000000000000000000000000000000602082015250565b600061280d6022836125d5565b9150612818826127b1565b604082019050919050565b6000602082019050818103600083015261283c81612800565b9050919050565b7f7061796d656e74206e6f742073756666696369656e742c20746869732061666660008201527f696c6961746520636f6465206973206f6e6c7920000000000000000000000000602082015250565b600061289f60348361254f565b91506128aa82612843565b603482019050919050565b7f2500000000000000000000000000000000000000000000000000000000000000600082015250565b60006128eb60018361254f565b91506128f6826128b5565b600182019050919050565b600061290c82612892565b9150612918828461258d565b9150612923826128de565b915081905092915050565b600061293982612544565b61294381856125d5565b935061295381856020860161255a565b61295c81611fc2565b840191505092915050565b60006020820190508181036000830152612981818461292e565b905092915050565b600060608201905061299e600083018661230e565b6129ab602083018561230e565b6129b8604083018461223a565b949350505050565b60006129cb8261217e565b91506129d68361217e565b9250828210156129e9576129e8612652565b5b828203905092915050565b7f616666696c6961746520636f646520616c726561647920696e20757365000000600082015250565b6000612a2a601d836125d5565b9150612a35826129f4565b602082019050919050565b60006020820190508181036000830152612a5981612a1d565b9050919050565b60008160601b9050919050565b6000612a7882612a60565b9050919050565b6000612a8a82612a6d565b9050919050565b612aa2612a9d826122fc565b612a7f565b82525050565b6000612ab48285612a91565b601482019150612ac4828461258d565b91508190509392505050565b7f746869732070726f6d6f74696f6e616c20636f646520686173206265656e207560008201527f73656420666f722074686973206164647265737320616c726561647900000000602082015250565b6000612b2c603c836125d5565b9150612b3782612ad0565b604082019050919050565b60006020820190508181036000830152612b5b81612b1f565b9050919050565b7f746869732070726f6d6f74696f6e616c20636f6465206861732065787069726560008201527f6400000000000000000000000000000000000000000000000000000000000000602082015250565b6000612bbe6021836125d5565b9150612bc982612b62565b604082019050919050565b60006020820190508181036000830152612bed81612bb1565b9050919050565b7f7061796d656e74206e6f742073756666696369656e742c20746869732070726f60008201527f6d6f74696f6e616c20636f6465206973206f6e6c792000000000000000000000602082015250565b6000612c5060368361254f565b9150612c5b82612bf4565b603682019050919050565b6000612c7182612c43565b9150612c7d828461258d565b9150612c88826128de565b915081905092915050565b7f4f776e61626c653a206e6577206f776e657220697320746865207a65726f206160008201527f6464726573730000000000000000000000000000000000000000000000000000602082015250565b6000612cef6026836125d5565b9150612cfa82612c93565b604082019050919050565b60006020820190508181036000830152612d1e81612ce2565b9050919050565b6000612d308261217e565b91507fffffffffffffffffffffffffffffffffffffffffffffffffffffffffffffffff821415612d6357612d62612652565b5b600182019050919050565b6000612d798261217e565b9150612d848361217e565b925082612d9457612d93612751565b5b828206905092915050565b6000612daa8261217e565b9150612db58361217e565b9250827fffffffffffffffffffffffffffffffffffffffffffffffffffffffffffffffff03821115612dea57612de9612652565b5b828201905092915050565b7f4e487b7100000000000000000000000000000000000000000000000000000000600052603260045260246000fdfea264697066735822122078cf1d4921e736d8cc76eaee40c29ebdbcfc18e4ade28a4ee59b947b50b263db64736f6c634300080c0033",
  "linkReferences": {},
  "deployedLinkReferences": {}
}